{"abi":[{"type":"function","name":"getJobCount","inputs":[{"name":"tokenId","type":"uint256","internalType":"uint256"}],"outputs":[{"name":"","type":"uint256","internalType":"uint256"}],"stateMutability":"view"},{"type":"function","name":"getJobs","inputs":[{"name":"tokenId","type":"uint256","internalType":"uint256"},{"name":"offset","type":"uint256","internalType":"uint256"},{"name":"limit","type":"uint256","internalType":"uint256"}],"outputs":[{"name":"","type":"tuple[]","internalType":"struct JobRegistry.JobRecord[]","components":[{"name":"recorder","type":"address","internalType":"address"},{"name":"timestamp","type":"uint256","internalType":"uint256"},{"name":"escrowId","type":"string","internalType":"string"},{"name":"message","type":"string","internalType":"string"}]}],"stateMutability":"view"},{"type":"function","name":"jobs","inputs":[{"name":"","type":"uint256","internalType":"uint256"},{"name":"","type":"uint256","internalType":"uint256"}],"outputs":[{"name":"recorder","type":"address","internalType":"address"},{"name":"timestamp","type":"uint256","internalType":"uint256"},{"name":"escrowId","type":"string","internalType":"string"},{"name":"message","type":"string","internalType":"string"}],"stateMutability":"view"},{"type":"function","name":"recordJob","inputs":[{"name":"tokenId","type":"uint256","internalType":"uint256"},{"name":"escrowId","type":"string","internalType":"string"},{"name":"message","type":"string","internalType":"string"}],"outputs":[],"stateMutability":"nonpayable"},{"type":"event","name":"JobCompleted","inputs":[{"name":"tokenId","type":"uint256","indexed":true,"internalType":"uint256"},{"name":"recorder","type":"address","indexed":true,"internalType":"address"},{"name":"escrowId","type":"string","indexed":false,"internalType":"string"},{"name":"timestamp","type":"uint256","indexed":false,"internalType":"uint256"},{"name":"message","type":"string","indexed":false,"internalType":"string"}],"anonymous":false}],"bytecode":{"object":"0x6080604052348015600e575f5ffd5b506112218061001c5f395ff3fe608060405234801561000f575f5ffd5b506004361061004a575f3560e01c80630420ddd11461004e57806331467a711461007e578063b37f84f8146100b1578063e8278dbd146100cd575b5f5ffd5b61006860048036038101906100639190610855565b6100fd565b6040516100759190610a85565b60405180910390f35b61009860048036038101906100939190610aa5565b6103fb565b6040516100a89493929190610b49565b60405180910390f35b6100cb60048036038101906100c69190610bfb565b61056b565b005b6100e760048036038101906100e29190610c8c565b6107c2565b6040516100f49190610cb7565b60405180910390f35b60605f5f5f8681526020019081526020015f2090505f8180549050905080851061017e575f67ffffffffffffffff81111561013b5761013a610cd0565b5b60405190808252806020026020018201604052801561017457816020015b6101616107de565b8152602001906001900390816101595790505b50925050506103f4565b5f848661018b9190610d2a565b905081811115610199578190505b5f86826101a69190610d5d565b90505f8167ffffffffffffffff8111156101c3576101c2610cd0565b5b6040519080825280602002602001820160405280156101fc57816020015b6101e96107de565b8152602001906001900390816101e15790505b5090505f5f90505b828110156103ea5785818a6102199190610d2a565b8154811061022a57610229610d90565b5b905f5260205f2090600402016040518060800160405290815f82015f9054906101000a900473ffffffffffffffffffffffffffffffffffffffff1673ffffffffffffffffffffffffffffffffffffffff1673ffffffffffffffffffffffffffffffffffffffff168152602001600182015481526020016002820180546102af90610dea565b80601f01602080910402602001604051908101604052809291908181526020018280546102db90610dea565b80156103265780601f106102fd57610100808354040283529160200191610326565b820191905f5260205f20905b81548152906001019060200180831161030957829003601f168201915b5050505050815260200160038201805461033f90610dea565b80601f016020809104026020016040519081016040528092919081815260200182805461036b90610dea565b80156103b65780601f1061038d576101008083540402835291602001916103b6565b820191905f5260205f20905b81548152906001019060200180831161039957829003601f168201915b5050505050815250508282815181106103d2576103d1610d90565b5b60200260200101819052508080600101915050610204565b5080955050505050505b9392505050565b5f602052815f5260405f208181548110610413575f80fd5b905f5260205f2090600402015f9150915050805f015f9054906101000a900473ffffffffffffffffffffffffffffffffffffffff169080600101549080600201805461045e90610dea565b80601f016020809104026020016040519081016040528092919081815260200182805461048a90610dea565b80156104d55780601f106104ac576101008083540402835291602001916104d5565b820191905f5260205f20905b8154815290600101906020018083116104b857829003601f168201915b5050505050908060030180546104ea90610dea565b80601f016020809104026020016040519081016040528092919081815260200182805461051690610dea565b80156105615780601f1061053857610100808354040283529160200191610561565b820191905f5260205f20905b81548152906001019060200180831161054457829003601f168201915b5050505050905084565b5f85116105ad576040517f08c379a00000000000000000000000000000000000000000000000000000000081526004016105a490610e64565b60405180910390fd5b6101188282905011156105f5576040517f08c379a00000000000000000000000000000000000000000000000000000000081526004016105ec90610ecc565b60405180910390fd5b5f5f8681526020019081526020015f2060405180608001604052803373ffffffffffffffffffffffffffffffffffffffff16815260200142815260200186868080601f0160208091040260200160405190810160405280939291908181526020018383808284375f81840152601f19601f82011690508083019250505050505050815260200184848080601f0160208091040260200160405190810160405280939291908181526020018383808284375f81840152601f19601f82011690508083019250505050505050815250908060018154018082558091505060019003905f5260205f2090600402015f909190919091505f820151815f015f6101000a81548173ffffffffffffffffffffffffffffffffffffffff021916908373ffffffffffffffffffffffffffffffffffffffff16021790555060208201518160010155604082015181600201908161074b919061109b565b506060820151816003019081610761919061109b565b5050503373ffffffffffffffffffffffffffffffffffffffff16857f921c9305e749bbaf3bc8c59ea06a14284d822eb678002a149d8ca0ea58bc035986864287876040516107b39594939291906111a4565b60405180910390a35050505050565b5f5f5f8381526020019081526020015f20805490509050919050565b60405180608001604052805f73ffffffffffffffffffffffffffffffffffffffff1681526020015f815260200160608152602001606081525090565b5f5ffd5b5f5ffd5b5f819050919050565b61083481610822565b811461083e575f5ffd5b50565b5f8135905061084f8161082b565b92915050565b5f5f5f6060848603121561086c5761086b61081a565b5b5f61087986828701610841565b935050602061088a86828701610841565b925050604061089b86828701610841565b9150509250925092565b5f81519050919050565b5f82825260208201905092915050565b5f819050602082019050919050565b5f73ffffffffffffffffffffffffffffffffffffffff82169050919050565b5f6108f7826108ce565b9050919050565b610907816108ed565b82525050565b61091681610822565b82525050565b5f81519050919050565b5f82825260208201905092915050565b8281835e5f83830152505050565b5f601f19601f8301169050919050565b5f61095e8261091c565b6109688185610926565b9350610978818560208601610936565b61098181610944565b840191505092915050565b5f608083015f8301516109a15f8601826108fe565b5060208301516109b4602086018261090d565b50604083015184820360408601526109cc8282610954565b915050606083015184820360608601526109e68282610954565b9150508091505092915050565b5f6109fe838361098c565b905092915050565b5f602082019050919050565b5f610a1c826108a5565b610a2681856108af565b935083602082028501610a38856108bf565b805f5b85811015610a735784840389528151610a5485826109f3565b9450610a5f83610a06565b925060208a01995050600181019050610a3b565b50829750879550505050505092915050565b5f6020820190508181035f830152610a9d8184610a12565b905092915050565b5f5f60408385031215610abb57610aba61081a565b5b5f610ac885828601610841565b9250506020610ad985828601610841565b9150509250929050565b610aec816108ed565b82525050565b610afb81610822565b82525050565b5f82825260208201905092915050565b5f610b1b8261091c565b610b258185610b01565b9350610b35818560208601610936565b610b3e81610944565b840191505092915050565b5f608082019050610b5c5f830187610ae3565b610b696020830186610af2565b8181036040830152610b7b8185610b11565b90508181036060830152610b8f8184610b11565b905095945050505050565b5f5ffd5b5f5ffd5b5f5ffd5b5f5f83601f840112610bbb57610bba610b9a565b5b8235905067ffffffffffffffff811115610bd857610bd7610b9e565b5b602083019150836001820283011115610bf457610bf3610ba2565b5b9250929050565b5f5f5f5f5f60608688031215610c1457610c1361081a565b5b5f610c2188828901610841565b955050602086013567ffffffffffffffff811115610c4257610c4161081e565b5b610c4e88828901610ba6565b9450945050604086013567ffffffffffffffff811115610c7157610c7061081e565b5b610c7d88828901610ba6565b92509250509295509295909350565b5f60208284031215610ca157610ca061081a565b5b5f610cae84828501610841565b91505092915050565b5f602082019050610cca5f830184610af2565b92915050565b7f4e487b71000000000000000000000000000000000000000000000000000000005f52604160045260245ffd5b7f4e487b71000000000000000000000000000000000000000000000000000000005f52601160045260245ffd5b5f610d3482610822565b9150610d3f83610822565b9250828201905080821115610d5757610d56610cfd565b5b92915050565b5f610d6782610822565b9150610d7283610822565b9250828203905081811115610d8a57610d89610cfd565b5b92915050565b7f4e487b71000000000000000000000000000000000000000000000000000000005f52603260045260245ffd5b7f4e487b71000000000000000000000000000000000000000000000000000000005f52602260045260245ffd5b5f6002820490506001821680610e0157607f821691505b602082108103610e1457610e13610dbd565b5b50919050565b7f496e76616c696420746f6b656e204944000000000000000000000000000000005f82015250565b5f610e4e601083610b01565b9150610e5982610e1a565b602082019050919050565b5f6020820190508181035f830152610e7b81610e42565b9050919050565b7f4d65737361676520746f6f206c6f6e67000000000000000000000000000000005f82015250565b5f610eb6601083610b01565b9150610ec182610e82565b602082019050919050565b5f6020820190508181035f830152610ee381610eaa565b9050919050565b5f819050815f5260205f209050919050565b5f6020601f8301049050919050565b5f82821b905092915050565b5f60088302610f467fffffffffffffffffffffffffffffffffffffffffffffffffffffffffffffffff82610f0b565b610f508683610f0b565b95508019841693508086168417925050509392505050565b5f819050919050565b5f610f8b610f86610f8184610822565b610f68565b610822565b9050919050565b5f819050919050565b610fa483610f71565b610fb8610fb082610f92565b848454610f17565b825550505050565b5f5f905090565b610fcf610fc0565b610fda818484610f9b565b505050565b5f5b8281101561100057610ff55f828401610fc7565b600181019050610fe1565b505050565b601f82111561105357828211156110525761101f81610eea565b61102883610efc565b61103185610efc565b602086101561103e575f90505b80830161104d82840382610fdf565b505050505b5b505050565b5f82821c905092915050565b5f6110735f1984600802611058565b1980831691505092915050565b5f61108b8383611064565b9150826002028217905092915050565b6110a48261091c565b67ffffffffffffffff8111156110bd576110bc610cd0565b5b6110c78254610dea565b6110d2828285611005565b5f60209050601f831160018114611103575f84156110f1578287015190505b6110fb8582611080565b865550611162565b601f19841661111186610eea565b5f5b8281101561113857848901518255600182019150602085019450602081019050611113565b868310156111555784890151611151601f891682611064565b8355505b6001600288020188555050505b505050505050565b828183375f83830152505050565b5f6111838385610b01565b935061119083858461116a565b61119983610944565b840190509392505050565b5f6060820190508181035f8301526111bd818789611178565b90506111cc6020830186610af2565b81810360408301526111df818486611178565b9050969550505050505056fea2646970667358221220684d7398fd9ea2fdcf6081673a2436fda94e5b91430b8dcf8cf7d249bf79f5a464736f6c63430008210033","linkReferences":{}},"methodIdentifiers":{"getJobCount(uint256)":"e8278dbd","getJobs(uint256,uint256,uint256)":"0420ddd1","jobs(uint256,uint256)":"31467a71","recordJob(uint256,string,string)":"b37f84f8"},"id":0}