{"abi":[{"type":"constructor","inputs":[{"name":"_soul","type":"address","internalType":"address"},{"name":"_verification","type":"address","internalType":"address"},{"name":"_job","type":"address","internalType":"address"},{"name":"_stake","type":"address","internalType":"address"}],"stateMutability":"nonpayable"},{"type":"function","name":"ACTIVITY_WEIGHT","inputs":[],"outputs":[{"name":"","type":"uint256","internalType":"uint256"}],"stateMutability":"view"},{"type":"function","name":"AGE_WEIGHT","inputs":[],"outputs":[{"name":"","type":"uint256","internalType":"uint256"}],"stateMutability":"view"},{"type":"function","name":"DECAY_BPS_PER_PERIOD","inputs":[],"outputs":[{"name":"","type":"uint256","internalType":"uint256"}],"stateMutability":"view"},{"type":"function","name":"DECAY_PERIOD","inputs":[],"outputs":[{"name":"","type":"uint256","internalType":"uint256"}],"stateMutability":"view"},{"type":"function","name":"ELITE_THRESHOLD","inputs":[],"outputs":[{"name":"","type":"uint256","internalType":"uint256"}],"stateMutability":"view"},{"type":"function","name":"JOB_WEIGHT","inputs":[],"outputs":[{"name":"","type":"uint256","internalType":"uint256"}],"stateMutability":"view"},{"type":"function","name":"LEGENDARY_THRESHOLD","inputs":[],"outputs":[{"name":"","type":"uint256","internalType":"uint256"}],"stateMutability":"view"},{"type":"function","name":"MAX_DECAY_BPS","inputs":[],"outputs":[{"name":"","type":"uint256","internalType":"uint256"}],"stateMutability":"view"},{"type":"function","name":"MAX_VERIFICATIONS_PER_DAY","inputs":[],"outputs":[{"name":"","type":"uint256","internalType":"uint256"}],"stateMutability":"view"},{"type":"function","name":"MIN_SCORE_FLOOR","inputs":[],"outputs":[{"name":"","type":"uint256","internalType":"uint256"}],"stateMutability":"view"},{"type":"function","name":"MUTUAL_VERIFY_PENALTY_BPS","inputs":[],"outputs":[{"name":"","type":"uint256","internalType":"uint256"}],"stateMutability":"view"},{"type":"function","name":"NEWCOMER_THRESHOLD","inputs":[],"outputs":[{"name":"","type":"uint256","internalType":"uint256"}],"stateMutability":"view"},{"type":"function","name":"STAKE_WEIGHT","inputs":[],"outputs":[{"name":"","type":"uint256","internalType":"uint256"}],"stateMutability":"view"},{"type":"function","name":"TRUSTED_THRESHOLD","inputs":[],"outputs":[{"name":"","type":"uint256","internalType":"uint256"}],"stateMutability":"view"},{"type":"function","name":"VERIFICATION_WEIGHT","inputs":[],"outputs":[{"name":"","type":"uint256","internalType":"uint256"}],"stateMutability":"view"},{"type":"function","name":"VERIFIED_THRESHOLD","inputs":[],"outputs":[{"name":"","type":"uint256","internalType":"uint256"}],"stateMutability":"view"},{"type":"function","name":"addAuthorizedCaller","inputs":[{"name":"caller","type":"address","internalType":"address"}],"outputs":[],"stateMutability":"nonpayable"},{"type":"function","name":"authorizedCallers","inputs":[{"name":"","type":"address","internalType":"address"}],"outputs":[{"name":"","type":"bool","internalType":"bool"}],"stateMutability":"view"},{"type":"function","name":"calculateReputation","inputs":[{"name":"tokenId","type":"uint256","internalType":"uint256"}],"outputs":[{"name":"","type":"uint256","internalType":"uint256"}],"stateMutability":"view"},{"type":"function","name":"flagMutualVerification","inputs":[{"name":"tokenA","type":"uint256","internalType":"uint256"},{"name":"tokenB","type":"uint256","internalType":"uint256"}],"outputs":[],"stateMutability":"nonpayable"},{"type":"function","name":"getDecayMultiplier","inputs":[{"name":"tokenId","type":"uint256","internalType":"uint256"}],"outputs":[{"name":"","type":"uint256","internalType":"uint256"}],"stateMutability":"view"},{"type":"function","name":"getReputationBreakdown","inputs":[{"name":"tokenId","type":"uint256","internalType":"uint256"}],"outputs":[{"name":"","type":"tuple","internalType":"struct ReputationEngine.ReputationBreakdown","components":[{"name":"activityScore","type":"uint256","internalType":"uint256"},{"name":"verificationScore","type":"uint256","internalType":"uint256"},{"name":"jobScore","type":"uint256","internalType":"uint256"},{"name":"ageScore","type":"uint256","internalType":"uint256"},{"name":"stakeBonus","type":"uint256","internalType":"uint256"},{"name":"decayPenalty","type":"uint256","internalType":"uint256"},{"name":"collusionPenalty","type":"uint256","internalType":"uint256"},{"name":"totalScore","type":"uint256","internalType":"uint256"},{"name":"tier","type":"uint8","internalType":"enum ReputationEngine.Tier"}]}],"stateMutability":"view"},{"type":"function","name":"getTier","inputs":[{"name":"tokenId","type":"uint256","internalType":"uint256"}],"outputs":[{"name":"","type":"uint8","internalType":"enum ReputationEngine.Tier"}],"stateMutability":"view"},{"type":"function","name":"jobRegistry","inputs":[],"outputs":[{"name":"","type":"address","internalType":"contract IJobRegistryRep"}],"stateMutability":"view"},{"type":"function","name":"jobValue","inputs":[{"name":"","type":"uint256","internalType":"uint256"}],"outputs":[{"name":"","type":"uint256","internalType":"uint256"}],"stateMutability":"view"},{"type":"function","name":"lastActivity","inputs":[{"name":"","type":"uint256","internalType":"uint256"}],"outputs":[{"name":"","type":"uint256","internalType":"uint256"}],"stateMutability":"view"},{"type":"function","name":"mutualVerifications","inputs":[{"name":"","type":"bytes32","internalType":"bytes32"}],"outputs":[{"name":"","type":"bool","internalType":"bool"}],"stateMutability":"view"},{"type":"function","name":"mutualVerifyCount","inputs":[{"name":"","type":"uint256","internalType":"uint256"}],"outputs":[{"name":"","type":"uint256","internalType":"uint256"}],"stateMutability":"view"},{"type":"function","name":"owner","inputs":[],"outputs":[{"name":"","type":"address","internalType":"address"}],"stateMutability":"view"},{"type":"function","name":"recordActivity","inputs":[{"name":"tokenId","type":"uint256","internalType":"uint256"}],"outputs":[],"stateMutability":"nonpayable"},{"type":"function","name":"recordJobValue","inputs":[{"name":"tokenId","type":"uint256","internalType":"uint256"},{"name":"value","type":"uint256","internalType":"uint256"}],"outputs":[],"stateMutability":"nonpayable"},{"type":"function","name":"registerAgent","inputs":[{"name":"tokenId","type":"uint256","internalType":"uint256"}],"outputs":[],"stateMutability":"nonpayable"},{"type":"function","name":"registeredAt","inputs":[{"name":"","type":"uint256","internalType":"uint256"}],"outputs":[{"name":"","type":"uint256","internalType":"uint256"}],"stateMutability":"view"},{"type":"function","name":"removeAuthorizedCaller","inputs":[{"name":"caller","type":"address","internalType":"address"}],"outputs":[],"stateMutability":"nonpayable"},{"type":"function","name":"soulContract","inputs":[],"outputs":[{"name":"","type":"address","internalType":"contract IAliasSoulRep"}],"stateMutability":"view"},{"type":"function","name":"stakeRegistry","inputs":[],"outputs":[{"name":"","type":"address","internalType":"contract IStakeRegistryRep"}],"stateMutability":"view"},{"type":"function","name":"transferOwnership","inputs":[{"name":"newOwner","type":"address","internalType":"address"}],"outputs":[],"stateMutability":"nonpayable"},{"type":"function","name":"updateContracts","inputs":[{"name":"_soul","type":"address","internalType":"address"},{"name":"_verification","type":"address","internalType":"address"},{"name":"_job","type":"address","internalType":"address"},{"name":"_stake","type":"address","internalType":"address"}],"outputs":[],"stateMutability":"nonpayable"},{"type":"function","name":"verificationRegistry","inputs":[],"outputs":[{"name":"","type":"address","internalType":"contract IVerificationRegistryRep"}],"stateMutability":"view"},{"type":"event","name":"ActivityRecorded","inputs":[{"name":"tokenId","type":"uint256","indexed":true,"internalType":"uint256"},{"name":"timestamp","type":"uint256","indexed":false,"internalType":"uint256"}],"anonymous":false},{"type":"event","name":"AgentRegistered","inputs":[{"name":"tokenId","type":"uint256","indexed":true,"internalType":"uint256"},{"name":"timestamp","type":"uint256","indexed":false,"internalType":"uint256"}],"anonymous":false},{"type":"event","name":"CallerAuthorized","inputs":[{"name":"caller","type":"address","indexed":true,"internalType":"address"}],"anonymous":false},{"type":"event","name":"CallerRevoked","inputs":[{"name":"caller","type":"address","indexed":true,"internalType":"address"}],"anonymous":false},{"type":"event","name":"JobValueRecorded","inputs":[{"name":"tokenId","type":"uint256","indexed":true,"internalType":"uint256"},{"name":"value","type":"uint256","indexed":false,"internalType":"uint256"}],"anonymous":false},{"type":"event","name":"MutualVerificationFlagged","inputs":[{"name":"tokenA","type":"uint256","indexed":true,"internalType":"uint256"},{"name":"tokenB","type":"uint256","indexed":true,"internalType":"uint256"}],"anonymous":false}],"bytecode":{"object":"0x608060405234801561000f575f5ffd5b5060405161301338038061301383398181016040528101906100319190610245565b5f73ffffffffffffffffffffffffffffffffffffffff168473ffffffffffffffffffffffffffffffffffffffff160361009f576040517f08c379a000000000000000000000000000000000000000000000000000000000815260040161009690610303565b60405180910390fd5b835f5f6101000a81548173ffffffffffffffffffffffffffffffffffffffff021916908373ffffffffffffffffffffffffffffffffffffffff1602179055508260015f6101000a81548173ffffffffffffffffffffffffffffffffffffffff021916908373ffffffffffffffffffffffffffffffffffffffff1602179055508160025f6101000a81548173ffffffffffffffffffffffffffffffffffffffff021916908373ffffffffffffffffffffffffffffffffffffffff1602179055508060035f6101000a81548173ffffffffffffffffffffffffffffffffffffffff021916908373ffffffffffffffffffffffffffffffffffffffff1602179055503360045f6101000a81548173ffffffffffffffffffffffffffffffffffffffff021916908373ffffffffffffffffffffffffffffffffffffffff16021790555050505050610321565b5f5ffd5b5f73ffffffffffffffffffffffffffffffffffffffff82169050919050565b5f610214826101eb565b9050919050565b6102248161020a565b811461022e575f5ffd5b50565b5f8151905061023f8161021b565b92915050565b5f5f5f5f6080858703121561025d5761025c6101e7565b5b5f61026a87828801610231565b945050602061027b87828801610231565b935050604061028c87828801610231565b925050606061029d87828801610231565b91505092959194509250565b5f82825260208201905092915050565b7f496e76616c696420736f756c00000000000000000000000000000000000000005f82015250565b5f6102ed600c836102a9565b91506102f8826102b9565b602082019050919050565b5f6020820190508181035f83015261031a816102e1565b9050919050565b612ce58061032e5f395ff3fe608060405234801561000f575f5ffd5b506004361061023b575f3560e01c8063891df67111610139578063b84c1d4a116100b6578063ef2019781161007a578063ef201978146106cf578063efa4f8d4146106ed578063f2fde38b1461070b578063f4277c6d14610727578063f94212b6146107455761023b565b8063b84c1d4a14610617578063ba1290a314610635578063bd931bd114610665578063c4d6e9af14610683578063ca4bd4e7146106b35761023b565b8063989308db116100fd578063989308db146105735780639ffab50c146105a3578063b36d8df9146105c1578063b4163afc146105df578063b7aa0231146105fb5761023b565b8063891df671146104a75780638c7aed25146104d75780638da5cb5b14610507578063905724551461052557806391ad69d3146105555761023b565b8063383ea728116101c75780635f14a3541161018b5780635f14a35414610411578063670b784f1461042f578063683048351461044d5780637372f3f51461046b578063796ff483146104895761023b565b8063383ea728146103595780634f062c5a14610377578063536fff6c146103a75780635d0ff59f146103d75780635e0c4ad4146103f35761023b565b806323682c471161020e57806323682c47146102b35780632471f45a146102d15780632ff7e6f9146102ef57806334f4e0351461031f5780633569249f1461033b5761023b565b80630b7512791461023f5780630fcd510a1461025b57806313a155ea146102795780631e9d490414610295575b5f5ffd5b61025960048036038101906102549190612389565b610775565b005b6102636109d9565b6040516102709190612405565b60405180910390f35b610293600480360381019061028e919061241e565b6109de565b005b61029d610b76565b6040516102aa9190612405565b60405180910390f35b6102bb610b7d565b6040516102c891906124a4565b60405180910390f35b6102d9610ba2565b6040516102e69190612405565b60405180910390f35b610309600480360381019061030491906124e7565b610ba7565b6040516103169190612405565b60405180910390f35b61033960048036038101906103349190612512565b610bb8565b005b610343610ded565b6040516103509190612405565b60405180910390f35b610361610df2565b60405161036e9190612405565b60405180910390f35b610391600480360381019061038c91906124e7565b610df7565b60405161039e91906125c3565b60405180910390f35b6103c160048036038101906103bc919061241e565b610f60565b6040516103ce91906125f6565b60405180910390f35b6103f160048036038101906103ec91906124e7565b610f7d565b005b6103fb6111f3565b6040516104089190612405565b60405180910390f35b6104196111f8565b6040516104269190612405565b60405180910390f35b6104376111fe565b6040516104449190612405565b60405180910390f35b610455611204565b604051610462919061262f565b60405180910390f35b610473611229565b6040516104809190612405565b60405180910390f35b61049161122e565b60405161049e9190612668565b60405180910390f35b6104c160048036038101906104bc91906124e7565b611252565b6040516104ce9190612405565b60405180910390f35b6104f160048036038101906104ec91906124e7565b611267565b6040516104fe9190612405565b60405180910390f35b61050f61127c565b60405161051c9190612690565b60405180910390f35b61053f600480360381019061053a91906124e7565b6112a1565b60405161054c9190612405565b60405180910390f35b61055d611397565b60405161056a9190612405565b60405180910390f35b61058d600480360381019061058891906124e7565b61139d565b60405161059a9190612405565b60405180910390f35b6105ab6113b2565b6040516105b89190612405565b60405180910390f35b6105c96113b8565b6040516105d69190612405565b60405180910390f35b6105f960048036038101906105f49190612512565b6113be565b005b6106156004803603810190610610919061241e565b6115b8565b005b61061f6116e1565b60405161062c9190612405565b60405180910390f35b61064f600480360381019061064a91906126dc565b6116e7565b60405161065c91906125f6565b60405180910390f35b61066d611704565b60405161067a9190612405565b60405180910390f35b61069d600480360381019061069891906124e7565b61170a565b6040516106aa91906127da565b60405180910390f35b6106cd60048036038101906106c891906124e7565b6117fe565b005b6106d7611a0b565b6040516106e49190612405565b60405180910390f35b6106f5611a10565b6040516107029190612814565b60405180910390f35b6107256004803603810190610720919061241e565b611a35565b005b61072f611b75565b60405161073c9190612405565b60405180910390f35b61075f600480360381019061075a91906124e7565b611b7b565b60405161076c9190612405565b60405180910390f35b60045f9054906101000a900473ffffffffffffffffffffffffffffffffffffffff1673ffffffffffffffffffffffffffffffffffffffff163373ffffffffffffffffffffffffffffffffffffffff1614610804576040517f08c379a00000000000000000000000000000000000000000000000000000000081526004016107fb90612887565b60405180910390fd5b5f73ffffffffffffffffffffffffffffffffffffffff168473ffffffffffffffffffffffffffffffffffffffff161461087757835f5f6101000a81548173ffffffffffffffffffffffffffffffffffffffff021916908373ffffffffffffffffffffffffffffffffffffffff1602179055505b5f73ffffffffffffffffffffffffffffffffffffffff168373ffffffffffffffffffffffffffffffffffffffff16146108eb578260015f6101000a81548173ffffffffffffffffffffffffffffffffffffffff021916908373ffffffffffffffffffffffffffffffffffffffff1602179055505b5f73ffffffffffffffffffffffffffffffffffffffff168273ffffffffffffffffffffffffffffffffffffffff161461095f578160025f6101000a81548173ffffffffffffffffffffffffffffffffffffffff021916908373ffffffffffffffffffffffffffffffffffffffff1602179055505b5f73ffffffffffffffffffffffffffffffffffffffff168173ffffffffffffffffffffffffffffffffffffffff16146109d3578060035f6101000a81548173ffffffffffffffffffffffffffffffffffffffff021916908373ffffffffffffffffffffffffffffffffffffffff1602179055505b50505050565b603281565b60045f9054906101000a900473ffffffffffffffffffffffffffffffffffffffff1673ffffffffffffffffffffffffffffffffffffffff163373ffffffffffffffffffffffffffffffffffffffff1614610a6d576040517f08c379a0000000000000000000000000000000000000000000000000000000008152600401610a6490612887565b60405180910390fd5b5f73ffffffffffffffffffffffffffffffffffffffff168173ffffffffffffffffffffffffffffffffffffffff1603610adb576040517f08c379a0000000000000000000000000000000000000000000000000000000008152600401610ad2906128ef565b60405180910390fd5b600160055f8373ffffffffffffffffffffffffffffffffffffffff1673ffffffffffffffffffffffffffffffffffffffff1681526020019081526020015f205f6101000a81548160ff0219169083151502179055508073ffffffffffffffffffffffffffffffffffffffff167f6acfd92212f0ec670af78f8ba2273e4a85ac17023475650c25be0440602bff2d60405160405180910390a250565b62093a8081565b60025f9054906101000a900473ffffffffffffffffffffffffffffffffffffffff1681565b606481565b5f610bb182611b90565b9050919050565b60045f9054906101000a900473ffffffffffffffffffffffffffffffffffffffff1673ffffffffffffffffffffffffffffffffffffffff163373ffffffffffffffffffffffffffffffffffffffff161480610c59575060055f3373ffffffffffffffffffffffffffffffffffffffff1673ffffffffffffffffffffffffffffffffffffffff1681526020019081526020015f205f9054906101000a900460ff165b610c98576040517f08c379a0000000000000000000000000000000000000000000000000000000008152600401610c8f90612957565b60405180910390fd5b815f81118015610d3457505f5f9054906101000a900473ffffffffffffffffffffffffffffffffffffffff1673ffffffffffffffffffffffffffffffffffffffff16634879a9a66040518163ffffffff1660e01b8152600401602060405180830381865afa158015610d0c573d5f5f3e3d5ffd5b505050506040513d601f19601f82011682018060405250810190610d309190612989565b8111155b610d73576040517f08c379a0000000000000000000000000000000000000000000000000000000008152600401610d6a906129fe565b60405180910390fd5b8160085f8581526020019081526020015f205f828254610d939190612a49565b925050819055504260065f8581526020019081526020015f2081905550827f36834b4a1c7277dbadaa82aef0586094f81716759ac0420983c3bdd590df3c3183604051610de09190612405565b60405180910390a2505050565b600a81565b60c881565b5f815f81118015610e9457505f5f9054906101000a900473ffffffffffffffffffffffffffffffffffffffff1673ffffffffffffffffffffffffffffffffffffffff16634879a9a66040518163ffffffff1660e01b8152600401602060405180830381865afa158015610e6c573d5f5f3e3d5ffd5b505050506040513d601f19601f82011682018060405250810190610e909190612989565b8111155b610ed3576040517f08c379a0000000000000000000000000000000000000000000000000000000008152600401610eca906129fe565b60405180910390fd5b5f3073ffffffffffffffffffffffffffffffffffffffff166390572455856040518263ffffffff1660e01b8152600401610f0d9190612405565b602060405180830381865afa158015610f28573d5f5f3e3d5ffd5b505050506040513d601f19601f82011682018060405250810190610f4c9190612989565b9050610f5781611c27565b92505050919050565b6005602052805f5260405f205f915054906101000a900460ff1681565b60045f9054906101000a900473ffffffffffffffffffffffffffffffffffffffff1673ffffffffffffffffffffffffffffffffffffffff163373ffffffffffffffffffffffffffffffffffffffff16148061101e575060055f3373ffffffffffffffffffffffffffffffffffffffff1673ffffffffffffffffffffffffffffffffffffffff1681526020019081526020015f205f9054906101000a900460ff165b61105d576040517f08c379a000000000000000000000000000000000000000000000000000000000815260040161105490612957565b60405180910390fd5b805f811180156110f957505f5f9054906101000a900473ffffffffffffffffffffffffffffffffffffffff1673ffffffffffffffffffffffffffffffffffffffff16634879a9a66040518163ffffffff1660e01b8152600401602060405180830381865afa1580156110d1573d5f5f3e3d5ffd5b505050506040513d601f19601f820116820180604052508101906110f59190612989565b8111155b611138576040517f08c379a000000000000000000000000000000000000000000000000000000000815260040161112f906129fe565b60405180910390fd5b5f60075f8481526020019081526020015f20541461118b576040517f08c379a000000000000000000000000000000000000000000000000000000000815260040161118290612ac6565b60405180910390fd5b4260075f8481526020019081526020015f20819055504260065f8481526020019081526020015f2081905550817ff77f100d8239998ee21717ed1e13c281aebc791199d4a49e48b6d478d8ecd955426040516111e79190612405565b60405180910390a25050565b600a81565b6103e881565b6109c481565b60035f9054906101000a900473ffffffffffffffffffffffffffffffffffffffff1681565b600181565b5f5f9054906101000a900473ffffffffffffffffffffffffffffffffffffffff1681565b6007602052805f5260405f205f915090505481565b600a602052805f5260405f205f915090505481565b60045f9054906101000a900473ffffffffffffffffffffffffffffffffffffffff1681565b5f815f8111801561133e57505f5f9054906101000a900473ffffffffffffffffffffffffffffffffffffffff1673ffffffffffffffffffffffffffffffffffffffff16634879a9a66040518163ffffffff1660e01b8152600401602060405180830381865afa158015611316573d5f5f3e3d5ffd5b505050506040513d601f19601f8201168201806040525081019061133a9190612989565b8111155b61137d576040517f08c379a0000000000000000000000000000000000000000000000000000000008152600401611374906129fe565b60405180910390fd5b5f61138784611c87565b90508060e0015192505050919050565b6107d081565b6006602052805f5260405f205f915090505481565b6105dc81565b61138881565b60045f9054906101000a900473ffffffffffffffffffffffffffffffffffffffff1673ffffffffffffffffffffffffffffffffffffffff163373ffffffffffffffffffffffffffffffffffffffff16148061145f575060055f3373ffffffffffffffffffffffffffffffffffffffff1673ffffffffffffffffffffffffffffffffffffffff1681526020019081526020015f205f9054906101000a900460ff165b61149e576040517f08c379a000000000000000000000000000000000000000000000000000000000815260040161149590612957565b60405180910390fd5b8082036114e0576040517f08c379a00000000000000000000000000000000000000000000000000000000081526004016114d790612b2e565b60405180910390fd5b5f6114eb838361221a565b905060095f8281526020019081526020015f205f9054906101000a900460ff166115b357600160095f8381526020019081526020015f205f6101000a81548160ff021916908315150217905550600a5f8481526020019081526020015f205f81548092919061155990612b4c565b9190505550600a5f8381526020019081526020015f205f81548092919061157f90612b4c565b919050555081837f0ded0dbdd655c1fbe267f4384b2349e7ca7805481be6b435ed92d4d5e8980edf60405160405180910390a35b505050565b60045f9054906101000a900473ffffffffffffffffffffffffffffffffffffffff1673ffffffffffffffffffffffffffffffffffffffff163373ffffffffffffffffffffffffffffffffffffffff1614611647576040517f08c379a000000000000000000000000000000000000000000000000000000000815260040161163e90612887565b60405180910390fd5b5f60055f8373ffffffffffffffffffffffffffffffffffffffff1673ffffffffffffffffffffffffffffffffffffffff1681526020019081526020015f205f6101000a81548160ff0219169083151502179055508073ffffffffffffffffffffffffffffffffffffffff167f0491b0192bae7692618bfa4eff3f4942d2d8ec3300ef2e63d325b45e937c4ff160405160405180910390a250565b610bb881565b6009602052805f5260405f205f915054906101000a900460ff1681565b611f4081565b6117126122d6565b815f811180156117ae57505f5f9054906101000a900473ffffffffffffffffffffffffffffffffffffffff1673ffffffffffffffffffffffffffffffffffffffff16634879a9a66040518163ffffffff1660e01b8152600401602060405180830381865afa158015611786573d5f5f3e3d5ffd5b505050506040513d601f19601f820116820180604052508101906117aa9190612989565b8111155b6117ed576040517f08c379a00000000000000000000000000000000000000000000000000000000081526004016117e4906129fe565b60405180910390fd5b6117f683611c87565b915050919050565b60045f9054906101000a900473ffffffffffffffffffffffffffffffffffffffff1673ffffffffffffffffffffffffffffffffffffffff163373ffffffffffffffffffffffffffffffffffffffff16148061189f575060055f3373ffffffffffffffffffffffffffffffffffffffff1673ffffffffffffffffffffffffffffffffffffffff1681526020019081526020015f205f9054906101000a900460ff165b6118de576040517f08c379a00000000000000000000000000000000000000000000000000000000081526004016118d590612957565b60405180910390fd5b805f8111801561197a57505f5f9054906101000a900473ffffffffffffffffffffffffffffffffffffffff1673ffffffffffffffffffffffffffffffffffffffff16634879a9a66040518163ffffffff1660e01b8152600401602060405180830381865afa158015611952573d5f5f3e3d5ffd5b505050506040513d601f19601f820116820180604052508101906119769190612989565b8111155b6119b9576040517f08c379a00000000000000000000000000000000000000000000000000000000081526004016119b0906129fe565b60405180910390fd5b4260065f8481526020019081526020015f2081905550817fdfaba92e104b3f59aee40fe034b0f5b1103bd7bbbfd9f8dad3d2464283afe7de426040516119ff9190612405565b60405180910390a25050565b606481565b60015f9054906101000a900473ffffffffffffffffffffffffffffffffffffffff1681565b60045f9054906101000a900473ffffffffffffffffffffffffffffffffffffffff1673ffffffffffffffffffffffffffffffffffffffff163373ffffffffffffffffffffffffffffffffffffffff1614611ac4576040517f08c379a0000000000000000000000000000000000000000000000000000000008152600401611abb90612887565b60405180910390fd5b5f73ffffffffffffffffffffffffffffffffffffffff168173ffffffffffffffffffffffffffffffffffffffff1603611b32576040517f08c379a0000000000000000000000000000000000000000000000000000000008152600401611b29906128ef565b60405180910390fd5b8060045f6101000a81548173ffffffffffffffffffffffffffffffffffffffff021916908373ffffffffffffffffffffffffffffffffffffffff16021790555050565b6101f481565b6008602052805f5260405f205f915090505481565b5f5f60065f8481526020019081526020015f205490505f8103611bb857612710915050611c22565b5f8142611bc59190612b93565b90505f62093a8082611bd79190612bf3565b90505f8103611bed576127109350505050611c22565b5f606482611bfb9190612c23565b9050611f40811115611c0d57611f4090505b80612710611c1b9190612b93565b9450505050505b919050565b5f6101f48210611c3a5760059050611c82565b60c88210611c4b5760049050611c82565b60648210611c5c5760039050611c82565b60328210611c6d5760029050611c82565b60018210611c7e5760019050611c82565b5f90505b919050565b611c8f6122d6565b5f5f5f9054906101000a900473ffffffffffffffffffffffffffffffffffffffff1673ffffffffffffffffffffffffffffffffffffffff16639570cba9846040518263ffffffff1660e01b8152600401611ce99190612405565b602060405180830381865afa158015611d04573d5f5f3e3d5ffd5b505050506040513d601f19601f82011682018060405250810190611d289190612989565b90506014611d3582612265565b611d3f9190612c23565b825f0181815250505f60015f9054906101000a900473ffffffffffffffffffffffffffffffffffffffff1673ffffffffffffffffffffffffffffffffffffffff1663fa3a3848856040518263ffffffff1660e01b8152600401611da29190612405565b602060405180830381865afa158015611dbd573d5f5f3e3d5ffd5b505050506040513d601f19601f82011682018060405250810190611de19190612989565b9050601e611dee82612265565b611df89190612c23565b8360200181815250505f60025f9054906101000a900473ffffffffffffffffffffffffffffffffffffffff1673ffffffffffffffffffffffffffffffffffffffff1663e8278dbd866040518263ffffffff1660e01b8152600401611e5c9190612405565b602060405180830381865afa158015611e77573d5f5f3e3d5ffd5b505050506040513d601f19601f82011682018060405250810190611e9b9190612989565b90505f611ec9655af3107a400060085f8981526020019081526020015f2054611ec49190612bf3565b612265565b9050806019611ed784612265565b611ee19190612c23565b611eeb9190612a49565b8560400181815250505f60075f8881526020019081526020015f205490505f81118015611f1757508042115b15611f72575f620151808242611f2d9190612b93565b611f379190612bf3565b9050600f611f4482612265565b611f4e9190612c23565b876060018181525050609687606001511115611f705760968760600181815250505b505b5f60035f9054906101000a900473ffffffffffffffffffffffffffffffffffffffff1673ffffffffffffffffffffffffffffffffffffffff1663ce325bf8896040518263ffffffff1660e01b8152600401611fcd9190612405565b602060405180830381865afa158015611fe8573d5f5f3e3d5ffd5b505050506040513d601f19601f8201168201806040525081019061200c9190612989565b905066b1a2bc2ec50000811061202c5760c8876080018181525050612085565b662386f26fc10000811061204a576064876080018181525050612084565b6611c37937e080008110612068576032876080018181525050612083565b66038d7ea4c6800081106120825760198760800181815250505b5b5b5b5f8760600151886040015189602001518a5f01516120a39190612a49565b6120ad9190612a49565b6120b79190612a49565b905060648860800151826120cb9190612c23565b6120d59190612bf3565b816120e09190612a49565b90505f6120ec8a611b90565b905061271081836120fd9190612c23565b6121079190612bf3565b826121129190612b93565b8960a0018181525050612710818361212a9190612c23565b6121349190612bf3565b91505f600a5f8c81526020019081526020015f205490505f8111156121aa575f611388826121629190612c23565b90506127108111156121745761271090505b61271081856121839190612c23565b61218d9190612bf3565b8b60c00181815250508a60c00151846121a69190612b93565b9350505b600a831080156121b957505f83115b6121c357826121c6565b600a5b8a60e00181815250506121dc8a60e00151611c27565b8a610100019060058111156121f4576121f3612550565b5b9081600581111561220857612207612550565b5b81525050505050505050505050919050565b5f5f5f83851061222b57838561222e565b84845b915091508181604051602001612245929190612c84565b604051602081830303815290604052805190602001209250505092915050565b5f5f8203612275575f90506122d1565b5f60026001846122859190612a49565b61228f9190612bf3565b90505f8390505b808210156122cb5781905060028283866122b09190612bf3565b6122ba9190612a49565b6122c49190612bf3565b9150612296565b80925050505b919050565b6040518061012001604052805f81526020015f81526020015f81526020015f81526020015f81526020015f81526020015f81526020015f81526020015f600581111561232557612324612550565b5b81525090565b5f5ffd5b5f73ffffffffffffffffffffffffffffffffffffffff82169050919050565b5f6123588261232f565b9050919050565b6123688161234e565b8114612372575f5ffd5b50565b5f813590506123838161235f565b92915050565b5f5f5f5f608085870312156123a1576123a061232b565b5b5f6123ae87828801612375565b94505060206123bf87828801612375565b93505060406123d087828801612375565b92505060606123e187828801612375565b91505092959194509250565b5f819050919050565b6123ff816123ed565b82525050565b5f6020820190506124185f8301846123f6565b92915050565b5f602082840312156124335761243261232b565b5b5f61244084828501612375565b91505092915050565b5f819050919050565b5f61246c6124676124628461232f565b612449565b61232f565b9050919050565b5f61247d82612452565b9050919050565b5f61248e82612473565b9050919050565b61249e81612484565b82525050565b5f6020820190506124b75f830184612495565b92915050565b6124c6816123ed565b81146124d0575f5ffd5b50565b5f813590506124e1816124bd565b92915050565b5f602082840312156124fc576124fb61232b565b5b5f612509848285016124d3565b91505092915050565b5f5f604083850312156125285761252761232b565b5b5f612535858286016124d3565b9250506020612546858286016124d3565b9150509250929050565b7f4e487b71000000000000000000000000000000000000000000000000000000005f52602160045260245ffd5b6006811061258e5761258d612550565b5b50565b5f81905061259e8261257d565b919050565b5f6125ad82612591565b9050919050565b6125bd816125a3565b82525050565b5f6020820190506125d65f8301846125b4565b92915050565b5f8115159050919050565b6125f0816125dc565b82525050565b5f6020820190506126095f8301846125e7565b92915050565b5f61261982612473565b9050919050565b6126298161260f565b82525050565b5f6020820190506126425f830184612620565b92915050565b5f61265282612473565b9050919050565b61266281612648565b82525050565b5f60208201905061267b5f830184612659565b92915050565b61268a8161234e565b82525050565b5f6020820190506126a35f830184612681565b92915050565b5f819050919050565b6126bb816126a9565b81146126c5575f5ffd5b50565b5f813590506126d6816126b2565b92915050565b5f602082840312156126f1576126f061232b565b5b5f6126fe848285016126c8565b91505092915050565b612710816123ed565b82525050565b61271f816125a3565b82525050565b61012082015f82015161273a5f850182612707565b50602082015161274d6020850182612707565b5060408201516127606040850182612707565b5060608201516127736060850182612707565b5060808201516127866080850182612707565b5060a082015161279960a0850182612707565b5060c08201516127ac60c0850182612707565b5060e08201516127bf60e0850182612707565b506101008201516127d4610100850182612716565b50505050565b5f610120820190506127ee5f830184612725565b92915050565b5f6127fe82612473565b9050919050565b61280e816127f4565b82525050565b5f6020820190506128275f830184612805565b92915050565b5f82825260208201905092915050565b7f4e6f74206f776e657200000000000000000000000000000000000000000000005f82015250565b5f61287160098361282d565b915061287c8261283d565b602082019050919050565b5f6020820190508181035f83015261289e81612865565b9050919050565b7f5a65726f206164647265737300000000000000000000000000000000000000005f82015250565b5f6128d9600c8361282d565b91506128e4826128a5565b602082019050919050565b5f6020820190508181035f830152612906816128cd565b9050919050565b7f4e6f7420617574686f72697a65640000000000000000000000000000000000005f82015250565b5f612941600e8361282d565b915061294c8261290d565b602082019050919050565b5f6020820190508181035f83015261296e81612935565b9050919050565b5f81519050612983816124bd565b92915050565b5f6020828403121561299e5761299d61232b565b5b5f6129ab84828501612975565b91505092915050565b7f496e76616c696420746f6b656e000000000000000000000000000000000000005f82015250565b5f6129e8600d8361282d565b91506129f3826129b4565b602082019050919050565b5f6020820190508181035f830152612a15816129dc565b9050919050565b7f4e487b71000000000000000000000000000000000000000000000000000000005f52601160045260245ffd5b5f612a53826123ed565b9150612a5e836123ed565b9250828201905080821115612a7657612a75612a1c565b5b92915050565b7f416c7265616479207265676973746572656400000000000000000000000000005f82015250565b5f612ab060128361282d565b9150612abb82612a7c565b602082019050919050565b5f6020820190508181035f830152612add81612aa4565b9050919050565b7f53616d6520746f6b656e000000000000000000000000000000000000000000005f82015250565b5f612b18600a8361282d565b9150612b2382612ae4565b602082019050919050565b5f6020820190508181035f830152612b4581612b0c565b9050919050565b5f612b56826123ed565b91507fffffffffffffffffffffffffffffffffffffffffffffffffffffffffffffffff8203612b8857612b87612a1c565b5b600182019050919050565b5f612b9d826123ed565b9150612ba8836123ed565b9250828203905081811115612bc057612bbf612a1c565b5b92915050565b7f4e487b71000000000000000000000000000000000000000000000000000000005f52601260045260245ffd5b5f612bfd826123ed565b9150612c08836123ed565b925082612c1857612c17612bc6565b5b828204905092915050565b5f612c2d826123ed565b9150612c38836123ed565b9250828202612c46816123ed565b91508282048414831517612c5d57612c5c612a1c565b5b5092915050565b5f819050919050565b612c7e612c79826123ed565b612c64565b82525050565b5f612c8f8285612c6d565b602082019150612c9f8284612c6d565b602082019150819050939250505056fea2646970667358221220694ac4b25c7567116d9c3577c77712faa7d43046e59aa291df2cd0c8b7576ba464736f6c63430008210033","linkReferences":{}},"methodIdentifiers":{"ACTIVITY_WEIGHT()":"91ad69d3","AGE_WEIGHT()":"5f14a354","DECAY_BPS_PER_PERIOD()":"ef201978","DECAY_PERIOD()":"1e9d4904","ELITE_THRESHOLD()":"383ea728","JOB_WEIGHT()":"670b784f","LEGENDARY_THRESHOLD()":"f4277c6d","MAX_DECAY_BPS()":"bd931bd1","MAX_VERIFICATIONS_PER_DAY()":"3569249f","MIN_SCORE_FLOOR()":"5e0c4ad4","MUTUAL_VERIFY_PENALTY_BPS()":"b36d8df9","NEWCOMER_THRESHOLD()":"7372f3f5","STAKE_WEIGHT()":"9ffab50c","TRUSTED_THRESHOLD()":"2471f45a","VERIFICATION_WEIGHT()":"b84c1d4a","VERIFIED_THRESHOLD()":"0fcd510a","addAuthorizedCaller(address)":"13a155ea","authorizedCallers(address)":"536fff6c","calculateReputation(uint256)":"90572455","flagMutualVerification(uint256,uint256)":"b4163afc","getDecayMultiplier(uint256)":"2ff7e6f9","getReputationBreakdown(uint256)":"c4d6e9af","getTier(uint256)":"4f062c5a","jobRegistry()":"23682c47","jobValue(uint256)":"f94212b6","lastActivity(uint256)":"989308db","mutualVerifications(bytes32)":"ba1290a3","mutualVerifyCount(uint256)":"8c7aed25","owner()":"8da5cb5b","recordActivity(uint256)":"ca4bd4e7","recordJobValue(uint256,uint256)":"34f4e035","registerAgent(uint256)":"5d0ff59f","registeredAt(uint256)":"891df671","removeAuthorizedCaller(address)":"b7aa0231","soulContract()":"796ff483","stakeRegistry()":"68304835","transferOwnership(address)":"f2fde38b","updateContracts(address,address,address,address)":"0b751279","verificationRegistry()":"efa4f8d4"},"id":2}