{"abi":[{"type":"constructor","inputs":[{"name":"_soulContract","type":"address","internalType":"address"}],"stateMutability":"nonpayable"},{"type":"function","name":"BRONZE_THRESHOLD","inputs":[],"outputs":[{"name":"","type":"uint256","internalType":"uint256"}],"stateMutability":"view"},{"type":"function","name":"GOLD_THRESHOLD","inputs":[],"outputs":[{"name":"","type":"uint256","internalType":"uint256"}],"stateMutability":"view"},{"type":"function","name":"MAX_SLASH_BPS","inputs":[],"outputs":[{"name":"","type":"uint256","internalType":"uint256"}],"stateMutability":"view"},{"type":"function","name":"PLATINUM_THRESHOLD","inputs":[],"outputs":[{"name":"","type":"uint256","internalType":"uint256"}],"stateMutability":"view"},{"type":"function","name":"SILVER_THRESHOLD","inputs":[],"outputs":[{"name":"","type":"uint256","internalType":"uint256"}],"stateMutability":"view"},{"type":"function","name":"UNSTAKE_COOLDOWN","inputs":[],"outputs":[{"name":"","type":"uint256","internalType":"uint256"}],"stateMutability":"view"},{"type":"function","name":"addSlasher","inputs":[{"name":"slasher","type":"address","internalType":"address"}],"outputs":[],"stateMutability":"nonpayable"},{"type":"function","name":"authorizedSlashers","inputs":[{"name":"","type":"address","internalType":"address"}],"outputs":[{"name":"","type":"bool","internalType":"bool"}],"stateMutability":"view"},{"type":"function","name":"getSlashCount","inputs":[{"name":"tokenId","type":"uint256","internalType":"uint256"}],"outputs":[{"name":"","type":"uint256","internalType":"uint256"}],"stateMutability":"view"},{"type":"function","name":"getSlashHistory","inputs":[{"name":"tokenId","type":"uint256","internalType":"uint256"},{"name":"offset","type":"uint256","internalType":"uint256"},{"name":"limit","type":"uint256","internalType":"uint256"}],"outputs":[{"name":"","type":"tuple[]","internalType":"struct StakeRegistry.SlashRecord[]","components":[{"name":"slasher","type":"address","internalType":"address"},{"name":"amount","type":"uint256","internalType":"uint256"},{"name":"timestamp","type":"uint256","internalType":"uint256"},{"name":"reason","type":"string","internalType":"string"}]}],"stateMutability":"view"},{"type":"function","name":"getStake","inputs":[{"name":"tokenId","type":"uint256","internalType":"uint256"}],"outputs":[{"name":"","type":"uint256","internalType":"uint256"}],"stateMutability":"view"},{"type":"function","name":"getStakeInfo","inputs":[{"name":"tokenId","type":"uint256","internalType":"uint256"}],"outputs":[{"name":"","type":"tuple","internalType":"struct StakeRegistry.StakeInfo","components":[{"name":"amount","type":"uint256","internalType":"uint256"},{"name":"stakedAt","type":"uint256","internalType":"uint256"},{"name":"stakedBy","type":"address","internalType":"address"},{"name":"tier","type":"uint8","internalType":"enum StakeRegistry.StakeTier"}]}],"stateMutability":"view"},{"type":"function","name":"getTier","inputs":[{"name":"tokenId","type":"uint256","internalType":"uint256"}],"outputs":[{"name":"","type":"uint8","internalType":"enum StakeRegistry.StakeTier"}],"stateMutability":"view"},{"type":"function","name":"getUnstakeRequest","inputs":[{"name":"tokenId","type":"uint256","internalType":"uint256"}],"outputs":[{"name":"","type":"tuple","internalType":"struct StakeRegistry.UnstakeRequest","components":[{"name":"amount","type":"uint256","internalType":"uint256"},{"name":"requestedAt","type":"uint256","internalType":"uint256"},{"name":"pending","type":"bool","internalType":"bool"}]}],"stateMutability":"view"},{"type":"function","name":"isEligible","inputs":[{"name":"tokenId","type":"uint256","internalType":"uint256"},{"name":"required","type":"uint8","internalType":"enum StakeRegistry.StakeTier"}],"outputs":[{"name":"","type":"bool","internalType":"bool"}],"stateMutability":"view"},{"type":"function","name":"owner","inputs":[],"outputs":[{"name":"","type":"address","internalType":"address"}],"stateMutability":"view"},{"type":"function","name":"removeSlasher","inputs":[{"name":"slasher","type":"address","internalType":"address"}],"outputs":[],"stateMutability":"nonpayable"},{"type":"function","name":"requestUnstake","inputs":[{"name":"tokenId","type":"uint256","internalType":"uint256"},{"name":"amount","type":"uint256","internalType":"uint256"}],"outputs":[],"stateMutability":"nonpayable"},{"type":"function","name":"slash","inputs":[{"name":"tokenId","type":"uint256","internalType":"uint256"},{"name":"bps","type":"uint256","internalType":"uint256"},{"name":"reason","type":"string","internalType":"string"}],"outputs":[],"stateMutability":"nonpayable"},{"type":"function","name":"slashHistory","inputs":[{"name":"","type":"uint256","internalType":"uint256"},{"name":"","type":"uint256","internalType":"uint256"}],"outputs":[{"name":"slasher","type":"address","internalType":"address"},{"name":"amount","type":"uint256","internalType":"uint256"},{"name":"timestamp","type":"uint256","internalType":"uint256"},{"name":"reason","type":"string","internalType":"string"}],"stateMutability":"view"},{"type":"function","name":"slashedFundsBalance","inputs":[],"outputs":[{"name":"","type":"uint256","internalType":"uint256"}],"stateMutability":"view"},{"type":"function","name":"soulContract","inputs":[],"outputs":[{"name":"","type":"address","internalType":"contract IALIASSoulStake"}],"stateMutability":"view"},{"type":"function","name":"stake","inputs":[{"name":"tokenId","type":"uint256","internalType":"uint256"}],"outputs":[],"stateMutability":"payable"},{"type":"function","name":"stakes","inputs":[{"name":"","type":"uint256","internalType":"uint256"}],"outputs":[{"name":"amount","type":"uint256","internalType":"uint256"},{"name":"stakedAt","type":"uint256","internalType":"uint256"},{"name":"stakedBy","type":"address","internalType":"address"},{"name":"tier","type":"uint8","internalType":"enum StakeRegistry.StakeTier"}],"stateMutability":"view"},{"type":"function","name":"totalStaked","inputs":[],"outputs":[{"name":"","type":"uint256","internalType":"uint256"}],"stateMutability":"view"},{"type":"function","name":"transferOwnership","inputs":[{"name":"newOwner","type":"address","internalType":"address"}],"outputs":[],"stateMutability":"nonpayable"},{"type":"function","name":"unstake","inputs":[{"name":"tokenId","type":"uint256","internalType":"uint256"}],"outputs":[],"stateMutability":"nonpayable"},{"type":"function","name":"unstakeRequests","inputs":[{"name":"","type":"uint256","internalType":"uint256"}],"outputs":[{"name":"amount","type":"uint256","internalType":"uint256"},{"name":"requestedAt","type":"uint256","internalType":"uint256"},{"name":"pending","type":"bool","internalType":"bool"}],"stateMutability":"view"},{"type":"function","name":"withdrawSlashedFunds","inputs":[{"name":"to","type":"address","internalType":"address"}],"outputs":[],"stateMutability":"nonpayable"},{"type":"event","name":"Slashed","inputs":[{"name":"tokenId","type":"uint256","indexed":true,"internalType":"uint256"},{"name":"slasher","type":"address","indexed":true,"internalType":"address"},{"name":"amount","type":"uint256","indexed":false,"internalType":"uint256"},{"name":"reason","type":"string","indexed":false,"internalType":"string"}],"anonymous":false},{"type":"event","name":"SlasherAdded","inputs":[{"name":"slasher","type":"address","indexed":true,"internalType":"address"}],"anonymous":false},{"type":"event","name":"SlasherRemoved","inputs":[{"name":"slasher","type":"address","indexed":true,"internalType":"address"}],"anonymous":false},{"type":"event","name":"Staked","inputs":[{"name":"tokenId","type":"uint256","indexed":true,"internalType":"uint256"},{"name":"amount","type":"uint256","indexed":false,"internalType":"uint256"},{"name":"newTier","type":"uint8","indexed":false,"internalType":"enum StakeRegistry.StakeTier"}],"anonymous":false},{"type":"event","name":"TierChanged","inputs":[{"name":"tokenId","type":"uint256","indexed":true,"internalType":"uint256"},{"name":"oldTier","type":"uint8","indexed":false,"internalType":"enum StakeRegistry.StakeTier"},{"name":"newTier","type":"uint8","indexed":false,"internalType":"enum StakeRegistry.StakeTier"}],"anonymous":false},{"type":"event","name":"UnstakeRequested","inputs":[{"name":"tokenId","type":"uint256","indexed":true,"internalType":"uint256"},{"name":"amount","type":"uint256","indexed":false,"internalType":"uint256"},{"name":"unlockTime","type":"uint256","indexed":false,"internalType":"uint256"}],"anonymous":false},{"type":"event","name":"Unstaked","inputs":[{"name":"tokenId","type":"uint256","indexed":true,"internalType":"uint256"},{"name":"amount","type":"uint256","indexed":false,"internalType":"uint256"},{"name":"newTier","type":"uint8","indexed":false,"internalType":"enum StakeRegistry.StakeTier"}],"anonymous":false}],"bytecode":{"object":"0x60a06040526001600755348015610014575f5ffd5b50604051613cbf380380613cbf8339818101604052810190610036919061017b565b5f73ffffffffffffffffffffffffffffffffffffffff168173ffffffffffffffffffffffffffffffffffffffff16036100a4576040517f08c379a000000000000000000000000000000000000000000000000000000000815260040161009b90610200565b60405180910390fd5b8073ffffffffffffffffffffffffffffffffffffffff1660808173ffffffffffffffffffffffffffffffffffffffff1681525050335f5f6101000a81548173ffffffffffffffffffffffffffffffffffffffff021916908373ffffffffffffffffffffffffffffffffffffffff1602179055505061021e565b5f5ffd5b5f73ffffffffffffffffffffffffffffffffffffffff82169050919050565b5f61014a82610121565b9050919050565b61015a81610140565b8114610164575f5ffd5b50565b5f8151905061017581610151565b92915050565b5f602082840312156101905761018f61011d565b5b5f61019d84828501610167565b91505092915050565b5f82825260208201905092915050565b7f496e76616c696420736f756c20636f6e747261637400000000000000000000005f82015250565b5f6101ea6015836101a6565b91506101f5826101b6565b602082019050919050565b5f6020820190508181035f830152610217816101de565b9050919050565b608051613a6d6102525f395f8181610ae1015281816113fb01528181611725015281816118bc0152611ce70152613a6d5ff3fe6080604052600436106101c1575f3560e01c8063817b1cd2116100f6578063b759e83711610094578063d5a44f8611610063578063d5a44f8614610658578063ddb59e1314610697578063f2fde38b146106d3578063f87975af146106fb576101c1565b8063b759e837146105a0578063c1a0db30146105c8578063caaffae9146105f2578063ce325bf81461061c576101c1565b8063992cdc37116100d0578063992cdc37146104e1578063a694fc3a14610520578063aac6aa9c1461053c578063aed2d90814610564576101c1565b8063817b1cd214610463578063867bcc431461048d5780638da5cb5b146104b7576101c1565b80634f062c5a1161016357806368a9f19c1161013d57806368a9f19c146103bf57806368d4341f146103e757806369a2f0261461040f578063796ff48314610439576101c1565b80634f062c5a1461031d57806356265deb146103595780635697397414610395576101c1565b80632e17de781161019f5780632e17de781461026757806331440f551461028f5780634daec449146102b95780634f05515f146102f5576101c1565b806309813482146101c55780630b60c58f146102015780630d66649f1461022b575b5f5ffd5b3480156101d0575f5ffd5b506101eb60048036038101906101e691906125e7565b610739565b6040516101f89190612726565b60405180910390f35b34801561020c575f5ffd5b50610215610807565b604051610222919061274e565b60405180910390f35b348015610236575f5ffd5b50610251600480360381019061024c9190612767565b61080e565b60405161025e9190612942565b60405180910390f35b348015610272575f5ffd5b5061028d600480360381019061028891906125e7565b610a87565b005b34801561029a575f5ffd5b506102a3610f5a565b6040516102b0919061274e565b60405180910390f35b3480156102c4575f5ffd5b506102df60048036038101906102da9190612985565b610f60565b6040516102ec91906129dd565b60405180910390f35b348015610300575f5ffd5b5061031b60048036038101906103169190612a20565b610fb8565b005b348015610328575f5ffd5b50610343600480360381019061033e91906125e7565b611205565b6040516103509190612a5a565b60405180910390f35b348015610364575f5ffd5b5061037f600480360381019061037a91906125e7565b61122f565b60405161038c919061274e565b60405180910390f35b3480156103a0575f5ffd5b506103a961124c565b6040516103b6919061274e565b60405180910390f35b3480156103ca575f5ffd5b506103e560048036038101906103e09190612a20565b611257565b005b3480156103f2575f5ffd5b5061040d60048036038101906104089190612a73565b6113ee565b005b34801561041a575f5ffd5b50610423611718565b604051610430919061274e565b60405180910390f35b348015610444575f5ffd5b5061044d611723565b60405161045a9190612b0c565b60405180910390f35b34801561046e575f5ffd5b50610477611747565b604051610484919061274e565b60405180910390f35b348015610498575f5ffd5b506104a161174d565b6040516104ae919061274e565b60405180910390f35b3480156104c2575f5ffd5b506104cb611753565b6040516104d89190612b34565b60405180910390f35b3480156104ec575f5ffd5b5061050760048036038101906105029190612a73565b611777565b6040516105179493929190612b95565b60405180910390f35b61053a600480360381019061053591906125e7565b611862565b005b348015610547575f5ffd5b50610562600480360381019061055d9190612a20565b611b95565b005b34801561056f575f5ffd5b5061058a60048036038101906105859190612a20565b611cbd565b60405161059791906129dd565b60405180910390f35b3480156105ab575f5ffd5b506105c660048036038101906105c19190612c40565b611cda565b005b3480156105d3575f5ffd5b506105dc61224d565b6040516105e9919061274e565b60405180910390f35b3480156105fd575f5ffd5b50610606612258565b604051610613919061274e565b60405180910390f35b348015610627575f5ffd5b50610642600480360381019061063d91906125e7565b612263565b60405161064f919061274e565b60405180910390f35b348015610663575f5ffd5b5061067e600480360381019061067991906125e7565b61227f565b60405161068e9493929190612cb1565b60405180910390f35b3480156106a2575f5ffd5b506106bd60048036038101906106b891906125e7565b6122d7565b6040516106ca9190612d43565b60405180910390f35b3480156106de575f5ffd5b506106f960048036038101906106f49190612a20565b61232f565b005b348015610706575f5ffd5b50610721600480360381019061071c91906125e7565b61246d565b60405161073093929190612d5c565b60405180910390f35b610741612505565b60015f8381526020019081526020015f206040518060800160405290815f820154815260200160018201548152602001600282015f9054906101000a900473ffffffffffffffffffffffffffffffffffffffff1673ffffffffffffffffffffffffffffffffffffffff1673ffffffffffffffffffffffffffffffffffffffff1681526020016002820160149054906101000a900460ff1660048111156107ea576107e9612660565b5b60048111156107fc576107fb612660565b5b815250509050919050565b62093a8081565b60605f60035f8681526020019081526020015f2090505f81805490509050808510610890575f67ffffffffffffffff81111561084d5761084c612d91565b5b60405190808252806020026020018201604052801561088657816020015b610873612551565b81526020019060019003908161086b5790505b5092505050610a80565b5f848661089d9190612deb565b9050818111156108ab578190505b5f86826108b89190612e1e565b90505f8167ffffffffffffffff8111156108d5576108d4612d91565b5b60405190808252806020026020018201604052801561090e57816020015b6108fb612551565b8152602001906001900390816108f35790505b5090505f5f90505b82811015610a765785818a61092b9190612deb565b8154811061093c5761093b612e51565b5b905f5260205f2090600402016040518060800160405290815f82015f9054906101000a900473ffffffffffffffffffffffffffffffffffffffff1673ffffffffffffffffffffffffffffffffffffffff1673ffffffffffffffffffffffffffffffffffffffff16815260200160018201548152602001600282015481526020016003820180546109cb90612eab565b80601f01602080910402602001604051908101604052809291908181526020018280546109f790612eab565b8015610a425780601f10610a1957610100808354040283529160200191610a42565b820191905f5260205f20905b815481529060010190602001808311610a2557829003601f168201915b505050505081525050828281518110610a5e57610a5d612e51565b5b60200260200101819052508080600101915050610916565b5080955050505050505b9392505050565b600160075414610acc576040517f08c379a0000000000000000000000000000000000000000000000000000000008152600401610ac390612f25565b60405180910390fd5b6002600781905550805f81118015610b7057507f000000000000000000000000000000000000000000000000000000000000000073ffffffffffffffffffffffffffffffffffffffff16634879a9a66040518163ffffffff1660e01b8152600401602060405180830381865afa158015610b48573d5f5f3e3d5ffd5b505050506040513d601f19601f82011682018060405250810190610b6c9190612f57565b8111155b610baf576040517f08c379a0000000000000000000000000000000000000000000000000000000008152600401610ba690612fcc565b60405180910390fd5b60015f8381526020019081526020015f206002015f9054906101000a900473ffffffffffffffffffffffffffffffffffffffff1673ffffffffffffffffffffffffffffffffffffffff163373ffffffffffffffffffffffffffffffffffffffff1614610c50576040517f08c379a0000000000000000000000000000000000000000000000000000000008152600401610c4790613034565b60405180910390fd5b5f60025f8481526020019081526020015f209050806002015f9054906101000a900460ff16610cb4576040517f08c379a0000000000000000000000000000000000000000000000000000000008152600401610cab9061309c565b60405180910390fd5b62093a808160010154610cc79190612deb565b421015610d09576040517f08c379a0000000000000000000000000000000000000000000000000000000008152600401610d0090613104565b60405180910390fd5b5f60015f8581526020019081526020015f2090505f825f01549050815f0154811115610d3657815f015490505b5f8260020160149054906101000a900460ff16905081835f015f828254610d5d9190612e1e565b92505081905550610d70835f015461249f565b8360020160146101000a81548160ff02191690836004811115610d9657610d95612660565b5b02179055508160055f828254610dac9190612e1e565b925050819055505f846002015f6101000a81548160ff0219169083151502179055505f3373ffffffffffffffffffffffffffffffffffffffff1683604051610df39061314f565b5f6040518083038185875af1925050503d805f8114610e2d576040519150601f19603f3d011682016040523d82523d5f602084013e610e32565b606091505b5050905080610e76576040517f08c379a0000000000000000000000000000000000000000000000000000000008152600401610e6d906131ad565b60405180910390fd5b867fb2bf7d4edef91f6c57aef45ded635486d2ea2418df11d92d1cff7f38e8639163848660020160149054906101000a900460ff16604051610eb99291906131cb565b60405180910390a2816004811115610ed457610ed3612660565b5b8460020160149054906101000a900460ff166004811115610ef857610ef7612660565b5b14610f4957867fe4617657d9254e34fea36fd76ef71aea57ff771484a00d5a0874fcdb7641b489838660020160149054906101000a900460ff16604051610f409291906131f2565b60405180910390a25b505050505050600160078190555050565b61138881565b5f816004811115610f7457610f73612660565b5b60ff1660015f8581526020019081526020015f2060020160149054906101000a900460ff166004811115610fab57610faa612660565b5b60ff161015905092915050565b600160075414610ffd576040517f08c379a0000000000000000000000000000000000000000000000000000000008152600401610ff490612f25565b60405180910390fd5b60026007819055505f5f9054906101000a900473ffffffffffffffffffffffffffffffffffffffff1673ffffffffffffffffffffffffffffffffffffffff163373ffffffffffffffffffffffffffffffffffffffff1614611093576040517f08c379a000000000000000000000000000000000000000000000000000000000815260040161108a90613263565b60405180910390fd5b5f73ffffffffffffffffffffffffffffffffffffffff168173ffffffffffffffffffffffffffffffffffffffff1603611101576040517f08c379a00000000000000000000000000000000000000000000000000000000081526004016110f8906132cb565b60405180910390fd5b5f60065490505f8111611149576040517f08c379a000000000000000000000000000000000000000000000000000000000815260040161114090613333565b60405180910390fd5b5f6006819055505f8273ffffffffffffffffffffffffffffffffffffffff16826040516111759061314f565b5f6040518083038185875af1925050503d805f81146111af576040519150601f19603f3d011682016040523d82523d5f602084013e6111b4565b606091505b50509050806111f8576040517f08c379a00000000000000000000000000000000000000000000000000000000081526004016111ef906131ad565b60405180910390fd5b5050600160078190555050565b5f60015f8381526020019081526020015f2060020160149054906101000a900460ff169050919050565b5f60035f8381526020019081526020015f20805490509050919050565b662386f26fc1000081565b5f5f9054906101000a900473ffffffffffffffffffffffffffffffffffffffff1673ffffffffffffffffffffffffffffffffffffffff163373ffffffffffffffffffffffffffffffffffffffff16146112e5576040517f08c379a00000000000000000000000000000000000000000000000000000000081526004016112dc90613263565b60405180910390fd5b5f73ffffffffffffffffffffffffffffffffffffffff168173ffffffffffffffffffffffffffffffffffffffff1603611353576040517f08c379a000000000000000000000000000000000000000000000000000000000815260040161134a906132cb565b60405180910390fd5b600160045f8373ffffffffffffffffffffffffffffffffffffffff1673ffffffffffffffffffffffffffffffffffffffff1681526020019081526020015f205f6101000a81548160ff0219169083151502179055508073ffffffffffffffffffffffffffffffffffffffff167f049ccb28ab796d3225573a065712f6e7754487ced56056cda8889c337511807b60405160405180910390a250565b815f8111801561148a57507f000000000000000000000000000000000000000000000000000000000000000073ffffffffffffffffffffffffffffffffffffffff16634879a9a66040518163ffffffff1660e01b8152600401602060405180830381865afa158015611462573d5f5f3e3d5ffd5b505050506040513d601f19601f820116820180604052508101906114869190612f57565b8111155b6114c9576040517f08c379a00000000000000000000000000000000000000000000000000000000081526004016114c090612fcc565b60405180910390fd5b60015f8481526020019081526020015f206002015f9054906101000a900473ffffffffffffffffffffffffffffffffffffffff1673ffffffffffffffffffffffffffffffffffffffff163373ffffffffffffffffffffffffffffffffffffffff161461156a576040517f08c379a000000000000000000000000000000000000000000000000000000000815260040161156190613034565b60405180910390fd5b5f60015f8581526020019081526020015f20905082815f015410156115c4576040517f08c379a00000000000000000000000000000000000000000000000000000000081526004016115bb9061339b565b60405180910390fd5b5f8311611606576040517f08c379a00000000000000000000000000000000000000000000000000000000081526004016115fd90613403565b60405180910390fd5b60025f8581526020019081526020015f206002015f9054906101000a900460ff1615611667576040517f08c379a000000000000000000000000000000000000000000000000000000000815260040161165e9061346b565b60405180910390fd5b60405180606001604052808481526020014281526020016001151581525060025f8681526020019081526020015f205f820151815f0155602082015181600101556040820151816002015f6101000a81548160ff021916908315150217905550905050837f93894c3b9bda7d6f41191927937a109c931462a811a7f2dca4c413eb87aa7f018462093a80426116fc9190612deb565b60405161170a929190613489565b60405180910390a250505050565b66038d7ea4c6800081565b7f000000000000000000000000000000000000000000000000000000000000000081565b60055481565b60065481565b5f5f9054906101000a900473ffffffffffffffffffffffffffffffffffffffff1681565b6003602052815f5260405f208181548110611790575f80fd5b905f5260205f2090600402015f9150915050805f015f9054906101000a900473ffffffffffffffffffffffffffffffffffffffff16908060010154908060020154908060030180546117e190612eab565b80601f016020809104026020016040519081016040528092919081815260200182805461180d90612eab565b80156118585780601f1061182f57610100808354040283529160200191611858565b820191905f5260205f20905b81548152906001019060200180831161183b57829003601f168201915b5050505050905084565b6001600754146118a7576040517f08c379a000000000000000000000000000000000000000000000000000000000815260040161189e90612f25565b60405180910390fd5b6002600781905550805f8111801561194b57507f000000000000000000000000000000000000000000000000000000000000000073ffffffffffffffffffffffffffffffffffffffff16634879a9a66040518163ffffffff1660e01b8152600401602060405180830381865afa158015611923573d5f5f3e3d5ffd5b505050506040513d601f19601f820116820180604052508101906119479190612f57565b8111155b61198a576040517f08c379a000000000000000000000000000000000000000000000000000000000815260040161198190612fcc565b60405180910390fd5b5f34116119cc576040517f08c379a00000000000000000000000000000000000000000000000000000000081526004016119c3906134fa565b60405180910390fd5b5f60015f8481526020019081526020015f2090505f8160020160149054906101000a900460ff16905034825f015f828254611a079190612deb565b925050819055505f826001015403611a655742826001018190555033826002015f6101000a81548173ffffffffffffffffffffffffffffffffffffffff021916908373ffffffffffffffffffffffffffffffffffffffff1602179055505b611a71825f015461249f565b8260020160146101000a81548160ff02191690836004811115611a9757611a96612660565b5b02179055503460055f828254611aad9190612deb565b92505081905550837f947560c5f3f06fc8ab6f9b1176938972357b5d750c9c5cea089ba5da951747da348460020160149054906101000a900460ff16604051611af79291906131cb565b60405180910390a2806004811115611b1257611b11612660565b5b8260020160149054906101000a900460ff166004811115611b3657611b35612660565b5b14611b8757837fe4617657d9254e34fea36fd76ef71aea57ff771484a00d5a0874fcdb7641b489828460020160149054906101000a900460ff16604051611b7e9291906131f2565b60405180910390a25b505050600160078190555050565b5f5f9054906101000a900473ffffffffffffffffffffffffffffffffffffffff1673ffffffffffffffffffffffffffffffffffffffff163373ffffffffffffffffffffffffffffffffffffffff1614611c23576040517f08c379a0000000000000000000000000000000000000000000000000000000008152600401611c1a90613263565b60405180910390fd5b5f60045f8373ffffffffffffffffffffffffffffffffffffffff1673ffffffffffffffffffffffffffffffffffffffff1681526020019081526020015f205f6101000a81548160ff0219169083151502179055508073ffffffffffffffffffffffffffffffffffffffff167f3ed8cbce8cab40e59282f1743e2b607effa08b5cbe0111bb4721134f2f80d02560405160405180910390a250565b6004602052805f5260405f205f915054906101000a900460ff1681565b835f81118015611d7657507f000000000000000000000000000000000000000000000000000000000000000073ffffffffffffffffffffffffffffffffffffffff16634879a9a66040518163ffffffff1660e01b8152600401602060405180830381865afa158015611d4e573d5f5f3e3d5ffd5b505050506040513d601f19601f82011682018060405250810190611d729190612f57565b8111155b611db5576040517f08c379a0000000000000000000000000000000000000000000000000000000008152600401611dac90612fcc565b60405180910390fd5b60045f3373ffffffffffffffffffffffffffffffffffffffff1673ffffffffffffffffffffffffffffffffffffffff1681526020019081526020015f205f9054906101000a900460ff1680611e5557505f5f9054906101000a900473ffffffffffffffffffffffffffffffffffffffff1673ffffffffffffffffffffffffffffffffffffffff163373ffffffffffffffffffffffffffffffffffffffff16145b611e94576040517f08c379a0000000000000000000000000000000000000000000000000000000008152600401611e8b90613562565b60405180910390fd5b5f84118015611ea557506113888411155b611ee4576040517f08c379a0000000000000000000000000000000000000000000000000000000008152600401611edb906135ca565b60405180910390fd5b5f83839050118015611efb57506101188383905011155b611f3a576040517f08c379a0000000000000000000000000000000000000000000000000000000008152600401611f3190613632565b60405180910390fd5b5f60015f8781526020019081526020015f2090505f815f015411611f93576040517f08c379a0000000000000000000000000000000000000000000000000000000008152600401611f8a9061369a565b60405180910390fd5b5f61271086835f0154611fa691906136b8565b611fb09190613726565b90505f8260020160149054906101000a900460ff16905081835f015f828254611fd99190612e1e565b92505081905550611fec835f015461249f565b8360020160146101000a81548160ff0219169083600481111561201257612011612660565b5b02179055508160055f8282546120289190612e1e565b925050819055508160065f8282546120409190612deb565b9250508190555060035f8981526020019081526020015f2060405180608001604052803373ffffffffffffffffffffffffffffffffffffffff16815260200184815260200142815260200188888080601f0160208091040260200160405190810160405280939291908181526020018383808284375f81840152601f19601f82011690508083019250505050505050815250908060018154018082558091505060019003905f5260205f2090600402015f909190919091505f820151815f015f6101000a81548173ffffffffffffffffffffffffffffffffffffffff021916908373ffffffffffffffffffffffffffffffffffffffff1602179055506020820151816001015560408201518160020155606082015181600301908161216591906138fe565b5050503373ffffffffffffffffffffffffffffffffffffffff16887f8c73c0ab5e0b05a410b499b62d99c362536b43000f467845f2db0cecf368b20a8489896040516121b393929190613a07565b60405180910390a38060048111156121ce576121cd612660565b5b8360020160149054906101000a900460ff1660048111156121f2576121f1612660565b5b1461224357877fe4617657d9254e34fea36fd76ef71aea57ff771484a00d5a0874fcdb7641b489828560020160149054906101000a900460ff1660405161223a9291906131f2565b60405180910390a25b5050505050505050565b6611c37937e0800081565b66b1a2bc2ec5000081565b5f60015f8381526020019081526020015f205f01549050919050565b6001602052805f5260405f205f91509050805f015490806001015490806002015f9054906101000a900473ffffffffffffffffffffffffffffffffffffffff16908060020160149054906101000a900460ff16905084565b6122df61258c565b60025f8381526020019081526020015f206040518060600160405290815f820154815260200160018201548152602001600282015f9054906101000a900460ff1615151515815250509050919050565b5f5f9054906101000a900473ffffffffffffffffffffffffffffffffffffffff1673ffffffffffffffffffffffffffffffffffffffff163373ffffffffffffffffffffffffffffffffffffffff16146123bd576040517f08c379a00000000000000000000000000000000000000000000000000000000081526004016123b490613263565b60405180910390fd5b5f73ffffffffffffffffffffffffffffffffffffffff168173ffffffffffffffffffffffffffffffffffffffff160361242b576040517f08c379a0000000000000000000000000000000000000000000000000000000008152600401612422906132cb565b60405180910390fd5b805f5f6101000a81548173ffffffffffffffffffffffffffffffffffffffff021916908373ffffffffffffffffffffffffffffffffffffffff16021790555050565b6002602052805f5260405f205f91509050805f015490806001015490806002015f9054906101000a900460ff16905083565b5f66b1a2bc2ec5000082106124b75760049050612500565b662386f26fc1000082106124ce5760039050612500565b6611c37937e0800082106124e55760029050612500565b66038d7ea4c6800082106124fc5760019050612500565b5f90505b919050565b60405180608001604052805f81526020015f81526020015f73ffffffffffffffffffffffffffffffffffffffff1681526020015f600481111561254b5761254a612660565b5b81525090565b60405180608001604052805f73ffffffffffffffffffffffffffffffffffffffff1681526020015f81526020015f8152602001606081525090565b60405180606001604052805f81526020015f81526020015f151581525090565b5f5ffd5b5f5ffd5b5f819050919050565b6125c6816125b4565b81146125d0575f5ffd5b50565b5f813590506125e1816125bd565b92915050565b5f602082840312156125fc576125fb6125ac565b5b5f612609848285016125d3565b91505092915050565b61261b816125b4565b82525050565b5f73ffffffffffffffffffffffffffffffffffffffff82169050919050565b5f61264a82612621565b9050919050565b61265a81612640565b82525050565b7f4e487b71000000000000000000000000000000000000000000000000000000005f52602160045260245ffd5b6005811061269e5761269d612660565b5b50565b5f8190506126ae8261268d565b919050565b5f6126bd826126a1565b9050919050565b6126cd816126b3565b82525050565b608082015f8201516126e75f850182612612565b5060208201516126fa6020850182612612565b50604082015161270d6040850182612651565b50606082015161272060608501826126c4565b50505050565b5f6080820190506127395f8301846126d3565b92915050565b612748816125b4565b82525050565b5f6020820190506127615f83018461273f565b92915050565b5f5f5f6060848603121561277e5761277d6125ac565b5b5f61278b868287016125d3565b935050602061279c868287016125d3565b92505060406127ad868287016125d3565b9150509250925092565b5f81519050919050565b5f82825260208201905092915050565b5f819050602082019050919050565b5f81519050919050565b5f82825260208201905092915050565b8281835e5f83830152505050565b5f601f19601f8301169050919050565b5f612822826127e0565b61282c81856127ea565b935061283c8185602086016127fa565b61284581612808565b840191505092915050565b5f608083015f8301516128655f860182612651565b5060208301516128786020860182612612565b50604083015161288b6040860182612612565b50606083015184820360608601526128a38282612818565b9150508091505092915050565b5f6128bb8383612850565b905092915050565b5f602082019050919050565b5f6128d9826127b7565b6128e381856127c1565b9350836020820285016128f5856127d1565b805f5b85811015612930578484038952815161291185826128b0565b945061291c836128c3565b925060208a019950506001810190506128f8565b50829750879550505050505092915050565b5f6020820190508181035f83015261295a81846128cf565b905092915050565b6005811061296e575f5ffd5b50565b5f8135905061297f81612962565b92915050565b5f5f6040838503121561299b5761299a6125ac565b5b5f6129a8858286016125d3565b92505060206129b985828601612971565b9150509250929050565b5f8115159050919050565b6129d7816129c3565b82525050565b5f6020820190506129f05f8301846129ce565b92915050565b6129ff81612640565b8114612a09575f5ffd5b50565b5f81359050612a1a816129f6565b92915050565b5f60208284031215612a3557612a346125ac565b5b5f612a4284828501612a0c565b91505092915050565b612a54816126b3565b82525050565b5f602082019050612a6d5f830184612a4b565b92915050565b5f5f60408385031215612a8957612a886125ac565b5b5f612a96858286016125d3565b9250506020612aa7858286016125d3565b9150509250929050565b5f819050919050565b5f612ad4612acf612aca84612621565b612ab1565b612621565b9050919050565b5f612ae582612aba565b9050919050565b5f612af682612adb565b9050919050565b612b0681612aec565b82525050565b5f602082019050612b1f5f830184612afd565b92915050565b612b2e81612640565b82525050565b5f602082019050612b475f830184612b25565b92915050565b5f82825260208201905092915050565b5f612b67826127e0565b612b718185612b4d565b9350612b818185602086016127fa565b612b8a81612808565b840191505092915050565b5f608082019050612ba85f830187612b25565b612bb5602083018661273f565b612bc2604083018561273f565b8181036060830152612bd48184612b5d565b905095945050505050565b5f5ffd5b5f5ffd5b5f5ffd5b5f5f83601f840112612c0057612bff612bdf565b5b8235905067ffffffffffffffff811115612c1d57612c1c612be3565b5b602083019150836001820283011115612c3957612c38612be7565b5b9250929050565b5f5f5f5f60608587031215612c5857612c576125ac565b5b5f612c65878288016125d3565b9450506020612c76878288016125d3565b935050604085013567ffffffffffffffff811115612c9757612c966125b0565b5b612ca387828801612beb565b925092505092959194509250565b5f608082019050612cc45f83018761273f565b612cd1602083018661273f565b612cde6040830185612b25565b612ceb6060830184612a4b565b95945050505050565b612cfd816129c3565b82525050565b606082015f820151612d175f850182612612565b506020820151612d2a6020850182612612565b506040820151612d3d6040850182612cf4565b50505050565b5f606082019050612d565f830184612d03565b92915050565b5f606082019050612d6f5f83018661273f565b612d7c602083018561273f565b612d8960408301846129ce565b949350505050565b7f4e487b71000000000000000000000000000000000000000000000000000000005f52604160045260245ffd5b7f4e487b71000000000000000000000000000000000000000000000000000000005f52601160045260245ffd5b5f612df5826125b4565b9150612e00836125b4565b9250828201905080821115612e1857612e17612dbe565b5b92915050565b5f612e28826125b4565b9150612e33836125b4565b9250828203905081811115612e4b57612e4a612dbe565b5b92915050565b7f4e487b71000000000000000000000000000000000000000000000000000000005f52603260045260245ffd5b7f4e487b71000000000000000000000000000000000000000000000000000000005f52602260045260245ffd5b5f6002820490506001821680612ec257607f821691505b602082108103612ed557612ed4612e7e565b5b50919050565b7f5265656e7472616e7400000000000000000000000000000000000000000000005f82015250565b5f612f0f600983612b4d565b9150612f1a82612edb565b602082019050919050565b5f6020820190508181035f830152612f3c81612f03565b9050919050565b5f81519050612f51816125bd565b92915050565b5f60208284031215612f6c57612f6b6125ac565b5b5f612f7984828501612f43565b91505092915050565b7f496e76616c696420746f6b656e000000000000000000000000000000000000005f82015250565b5f612fb6600d83612b4d565b9150612fc182612f82565b602082019050919050565b5f6020820190508181035f830152612fe381612faa565b9050919050565b7f4e6f74207374616b6572000000000000000000000000000000000000000000005f82015250565b5f61301e600a83612b4d565b915061302982612fea565b602082019050919050565b5f6020820190508181035f83015261304b81613012565b9050919050565b7f4e6f2070656e64696e6720756e7374616b6500000000000000000000000000005f82015250565b5f613086601283612b4d565b915061309182613052565b602082019050919050565b5f6020820190508181035f8301526130b38161307a565b9050919050565b7f436f6f6c646f776e206e6f7420656c61707365640000000000000000000000005f82015250565b5f6130ee601483612b4d565b91506130f9826130ba565b602082019050919050565b5f6020820190508181035f83015261311b816130e2565b9050919050565b5f81905092915050565b50565b5f61313a5f83613122565b91506131458261312c565b5f82019050919050565b5f6131598261312f565b9150819050919050565b7f5472616e73666572206661696c656400000000000000000000000000000000005f82015250565b5f613197600f83612b4d565b91506131a282613163565b602082019050919050565b5f6020820190508181035f8301526131c48161318b565b9050919050565b5f6040820190506131de5f83018561273f565b6131eb6020830184612a4b565b9392505050565b5f6040820190506132055f830185612a4b565b6132126020830184612a4b565b9392505050565b7f4e6f74206f776e657200000000000000000000000000000000000000000000005f82015250565b5f61324d600983612b4d565b915061325882613219565b602082019050919050565b5f6020820190508181035f83015261327a81613241565b9050919050565b7f5a65726f206164647265737300000000000000000000000000000000000000005f82015250565b5f6132b5600c83612b4d565b91506132c082613281565b602082019050919050565b5f6020820190508181035f8301526132e2816132a9565b9050919050565b7f4e6f20736c61736865642066756e6473000000000000000000000000000000005f82015250565b5f61331d601083612b4d565b9150613328826132e9565b602082019050919050565b5f6020820190508181035f83015261334a81613311565b9050919050565b7f496e73756666696369656e74207374616b6500000000000000000000000000005f82015250565b5f613385601283612b4d565b915061339082613351565b602082019050919050565b5f6020820190508181035f8301526133b281613379565b9050919050565b7f4d75737420756e7374616b65203e2030000000000000000000000000000000005f82015250565b5f6133ed601083612b4d565b91506133f8826133b9565b602082019050919050565b5f6020820190508181035f83015261341a816133e1565b9050919050565b7f556e7374616b6520616c72656164792070656e64696e670000000000000000005f82015250565b5f613455601783612b4d565b915061346082613421565b602082019050919050565b5f6020820190508181035f83015261348281613449565b9050919050565b5f60408201905061349c5f83018561273f565b6134a9602083018461273f565b9392505050565b7f4d757374207374616b65203e20300000000000000000000000000000000000005f82015250565b5f6134e4600e83612b4d565b91506134ef826134b0565b602082019050919050565b5f6020820190508181035f830152613511816134d8565b9050919050565b7f4e6f7420617574686f72697a65640000000000000000000000000000000000005f82015250565b5f61354c600e83612b4d565b915061355782613518565b602082019050919050565b5f6020820190508181035f83015261357981613540565b9050919050565b7f496e76616c696420736c61736820616d6f756e740000000000000000000000005f82015250565b5f6135b4601483612b4d565b91506135bf82613580565b602082019050919050565b5f6020820190508181035f8301526135e1816135a8565b9050919050565b7f496e76616c696420726561736f6e0000000000000000000000000000000000005f82015250565b5f61361c600e83612b4d565b9150613627826135e8565b602082019050919050565b5f6020820190508181035f83015261364981613610565b9050919050565b7f4e6f7468696e6720746f20736c617368000000000000000000000000000000005f82015250565b5f613684601083612b4d565b915061368f82613650565b602082019050919050565b5f6020820190508181035f8301526136b181613678565b9050919050565b5f6136c2826125b4565b91506136cd836125b4565b92508282026136db816125b4565b915082820484148315176136f2576136f1612dbe565b5b5092915050565b7f4e487b71000000000000000000000000000000000000000000000000000000005f52601260045260245ffd5b5f613730826125b4565b915061373b836125b4565b92508261374b5761374a6136f9565b5b828204905092915050565b5f819050815f5260205f209050919050565b5f6020601f8301049050919050565b5f82821b905092915050565b5f600883026137b27fffffffffffffffffffffffffffffffffffffffffffffffffffffffffffffffff82613777565b6137bc8683613777565b95508019841693508086168417925050509392505050565b5f6137ee6137e96137e4846125b4565b612ab1565b6125b4565b9050919050565b5f819050919050565b613807836137d4565b61381b613813826137f5565b848454613783565b825550505050565b5f5f905090565b613832613823565b61383d8184846137fe565b505050565b5f5b82811015613863576138585f82840161382a565b600181019050613844565b505050565b601f8211156138b657828211156138b55761388281613756565b61388b83613768565b61389485613768565b60208610156138a1575f90505b8083016138b082840382613842565b505050505b5b505050565b5f82821c905092915050565b5f6138d65f19846008026138bb565b1980831691505092915050565b5f6138ee83836138c7565b9150826002028217905092915050565b613907826127e0565b67ffffffffffffffff8111156139205761391f612d91565b5b61392a8254612eab565b613935828285613868565b5f60209050601f831160018114613966575f8415613954578287015190505b61395e85826138e3565b8655506139c5565b601f19841661397486613756565b5f5b8281101561399b57848901518255600182019150602085019450602081019050613976565b868310156139b857848901516139b4601f8916826138c7565b8355505b6001600288020188555050505b505050505050565b828183375f83830152505050565b5f6139e68385612b4d565b93506139f38385846139cd565b6139fc83612808565b840190509392505050565b5f604082019050613a1a5f83018661273f565b8181036020830152613a2d8184866139db565b905094935050505056fea264697066735822122096814bc83bb34fa38bbf946fe6e93001e2f27ddebfcd5591bd98fe91e7ce7a9264736f6c63430008210033","linkReferences":{}},"methodIdentifiers":{"BRONZE_THRESHOLD()":"69a2f026","GOLD_THRESHOLD()":"56973974","MAX_SLASH_BPS()":"31440f55","PLATINUM_THRESHOLD()":"caaffae9","SILVER_THRESHOLD()":"c1a0db30","UNSTAKE_COOLDOWN()":"0b60c58f","addSlasher(address)":"68a9f19c","authorizedSlashers(address)":"aed2d908","getSlashCount(uint256)":"56265deb","getSlashHistory(uint256,uint256,uint256)":"0d66649f","getStake(uint256)":"ce325bf8","getStakeInfo(uint256)":"09813482","getTier(uint256)":"4f062c5a","getUnstakeRequest(uint256)":"ddb59e13","isEligible(uint256,uint8)":"4daec449","owner()":"8da5cb5b","removeSlasher(address)":"aac6aa9c","requestUnstake(uint256,uint256)":"68d4341f","slash(uint256,uint256,string)":"b759e837","slashHistory(uint256,uint256)":"992cdc37","slashedFundsBalance()":"867bcc43","soulContract()":"796ff483","stake(uint256)":"a694fc3a","stakes(uint256)":"d5a44f86","totalStaked()":"817b1cd2","transferOwnership(address)":"f2fde38b","unstake(uint256)":"2e17de78","unstakeRequests(uint256)":"f87975af","withdrawSlashedFunds(address)":"4f05515f"},"id":3}