{"abi":[{"type":"constructor","inputs":[{"name":"_soulContract","type":"address","internalType":"address"},{"name":"_arbiter","type":"address","internalType":"address"}],"stateMutability":"nonpayable"},{"type":"function","name":"MAX_FEE_BPS","inputs":[],"outputs":[{"name":"","type":"uint256","internalType":"uint256"}],"stateMutability":"view"},{"type":"function","name":"activeEscrowCount","inputs":[],"outputs":[{"name":"","type":"uint256","internalType":"uint256"}],"stateMutability":"view"},{"type":"function","name":"agentEscrows","inputs":[{"name":"","type":"uint256","internalType":"uint256"},{"name":"","type":"uint256","internalType":"uint256"}],"outputs":[{"name":"","type":"uint256","internalType":"uint256"}],"stateMutability":"view"},{"type":"function","name":"approveAndRelease","inputs":[{"name":"escrowId","type":"uint256","internalType":"uint256"}],"outputs":[],"stateMutability":"nonpayable"},{"type":"function","name":"arbiter","inputs":[],"outputs":[{"name":"","type":"address","internalType":"address"}],"stateMutability":"view"},{"type":"function","name":"cancelEscrow","inputs":[{"name":"escrowId","type":"uint256","internalType":"uint256"}],"outputs":[],"stateMutability":"nonpayable"},{"type":"function","name":"claimExpired","inputs":[{"name":"escrowId","type":"uint256","internalType":"uint256"}],"outputs":[],"stateMutability":"nonpayable"},{"type":"function","name":"clientEscrows","inputs":[{"name":"","type":"uint256","internalType":"uint256"},{"name":"","type":"uint256","internalType":"uint256"}],"outputs":[{"name":"","type":"uint256","internalType":"uint256"}],"stateMutability":"view"},{"type":"function","name":"completeJob","inputs":[{"name":"escrowId","type":"uint256","internalType":"uint256"},{"name":"resultHash","type":"string","internalType":"string"}],"outputs":[],"stateMutability":"nonpayable"},{"type":"function","name":"createEscrow","inputs":[{"name":"clientTokenId","type":"uint256","internalType":"uint256"},{"name":"agentTokenId","type":"uint256","internalType":"uint256"},{"name":"jobDescription","type":"string","internalType":"string"},{"name":"deadline","type":"uint256","internalType":"uint256"}],"outputs":[{"name":"","type":"uint256","internalType":"uint256"}],"stateMutability":"payable"},{"type":"function","name":"disputeJob","inputs":[{"name":"escrowId","type":"uint256","internalType":"uint256"},{"name":"reason","type":"string","internalType":"string"}],"outputs":[],"stateMutability":"nonpayable"},{"type":"function","name":"escrows","inputs":[{"name":"","type":"uint256","internalType":"uint256"}],"outputs":[{"name":"id","type":"uint256","internalType":"uint256"},{"name":"clientTokenId","type":"uint256","internalType":"uint256"},{"name":"agentTokenId","type":"uint256","internalType":"uint256"},{"name":"client","type":"address","internalType":"address"},{"name":"agent","type":"address","internalType":"address"},{"name":"amount","type":"uint256","internalType":"uint256"},{"name":"createdAt","type":"uint256","internalType":"uint256"},{"name":"deadline","type":"uint256","internalType":"uint256"},{"name":"jobDescription","type":"string","internalType":"string"},{"name":"resultHash","type":"string","internalType":"string"},{"name":"disputeReason","type":"string","internalType":"string"},{"name":"state","type":"uint8","internalType":"enum EscrowRegistry.EscrowState"}],"stateMutability":"view"},{"type":"function","name":"feeRecipient","inputs":[],"outputs":[{"name":"","type":"address","internalType":"address"}],"stateMutability":"view"},{"type":"function","name":"getActiveEscrowCount","inputs":[],"outputs":[{"name":"","type":"uint256","internalType":"uint256"}],"stateMutability":"view"},{"type":"function","name":"getEscrow","inputs":[{"name":"escrowId","type":"uint256","internalType":"uint256"}],"outputs":[{"name":"","type":"tuple","internalType":"struct EscrowRegistry.Escrow","components":[{"name":"id","type":"uint256","internalType":"uint256"},{"name":"clientTokenId","type":"uint256","internalType":"uint256"},{"name":"agentTokenId","type":"uint256","internalType":"uint256"},{"name":"client","type":"address","internalType":"address"},{"name":"agent","type":"address","internalType":"address"},{"name":"amount","type":"uint256","internalType":"uint256"},{"name":"createdAt","type":"uint256","internalType":"uint256"},{"name":"deadline","type":"uint256","internalType":"uint256"},{"name":"jobDescription","type":"string","internalType":"string"},{"name":"resultHash","type":"string","internalType":"string"},{"name":"disputeReason","type":"string","internalType":"string"},{"name":"state","type":"uint8","internalType":"enum EscrowRegistry.EscrowState"}]}],"stateMutability":"view"},{"type":"function","name":"getEscrowsByAgent","inputs":[{"name":"agentTokenId","type":"uint256","internalType":"uint256"},{"name":"offset","type":"uint256","internalType":"uint256"},{"name":"limit","type":"uint256","internalType":"uint256"}],"outputs":[{"name":"","type":"uint256[]","internalType":"uint256[]"}],"stateMutability":"view"},{"type":"function","name":"getEscrowsByClient","inputs":[{"name":"clientTokenId","type":"uint256","internalType":"uint256"},{"name":"offset","type":"uint256","internalType":"uint256"},{"name":"limit","type":"uint256","internalType":"uint256"}],"outputs":[{"name":"","type":"uint256[]","internalType":"uint256[]"}],"stateMutability":"view"},{"type":"function","name":"gracePeriod","inputs":[],"outputs":[{"name":"","type":"uint256","internalType":"uint256"}],"stateMutability":"view"},{"type":"function","name":"minEscrowAmount","inputs":[],"outputs":[{"name":"","type":"uint256","internalType":"uint256"}],"stateMutability":"view"},{"type":"function","name":"nextEscrowId","inputs":[],"outputs":[{"name":"","type":"uint256","internalType":"uint256"}],"stateMutability":"view"},{"type":"function","name":"owner","inputs":[],"outputs":[{"name":"","type":"address","internalType":"address"}],"stateMutability":"view"},{"type":"function","name":"protocolFeeBps","inputs":[],"outputs":[{"name":"","type":"uint256","internalType":"uint256"}],"stateMutability":"view"},{"type":"function","name":"resolveDispute","inputs":[{"name":"escrowId","type":"uint256","internalType":"uint256"},{"name":"clientBps","type":"uint256","internalType":"uint256"},{"name":"agentBps","type":"uint256","internalType":"uint256"}],"outputs":[],"stateMutability":"nonpayable"},{"type":"function","name":"setArbiter","inputs":[{"name":"_arbiter","type":"address","internalType":"address"}],"outputs":[],"stateMutability":"nonpayable"},{"type":"function","name":"setFeeRecipient","inputs":[{"name":"_recipient","type":"address","internalType":"address"}],"outputs":[],"stateMutability":"nonpayable"},{"type":"function","name":"setGracePeriod","inputs":[{"name":"_period","type":"uint256","internalType":"uint256"}],"outputs":[],"stateMutability":"nonpayable"},{"type":"function","name":"setMinEscrowAmount","inputs":[{"name":"_min","type":"uint256","internalType":"uint256"}],"outputs":[],"stateMutability":"nonpayable"},{"type":"function","name":"setProtocolFeeBps","inputs":[{"name":"_feeBps","type":"uint256","internalType":"uint256"}],"outputs":[],"stateMutability":"nonpayable"},{"type":"function","name":"soulContract","inputs":[],"outputs":[{"name":"","type":"address","internalType":"contract IALIASSoul"}],"stateMutability":"view"},{"type":"function","name":"startJob","inputs":[{"name":"escrowId","type":"uint256","internalType":"uint256"}],"outputs":[],"stateMutability":"nonpayable"},{"type":"function","name":"totalFees","inputs":[],"outputs":[{"name":"","type":"uint256","internalType":"uint256"}],"stateMutability":"view"},{"type":"function","name":"transferOwnership","inputs":[{"name":"newOwner","type":"address","internalType":"address"}],"outputs":[],"stateMutability":"nonpayable"},{"type":"event","name":"DisputeResolved","inputs":[{"name":"escrowId","type":"uint256","indexed":true,"internalType":"uint256"},{"name":"clientAmount","type":"uint256","indexed":false,"internalType":"uint256"},{"name":"agentAmount","type":"uint256","indexed":false,"internalType":"uint256"}],"anonymous":false},{"type":"event","name":"EscrowCancelled","inputs":[{"name":"escrowId","type":"uint256","indexed":true,"internalType":"uint256"},{"name":"refundAmount","type":"uint256","indexed":false,"internalType":"uint256"}],"anonymous":false},{"type":"event","name":"EscrowCreated","inputs":[{"name":"escrowId","type":"uint256","indexed":true,"internalType":"uint256"},{"name":"clientTokenId","type":"uint256","indexed":true,"internalType":"uint256"},{"name":"agentTokenId","type":"uint256","indexed":true,"internalType":"uint256"},{"name":"amount","type":"uint256","indexed":false,"internalType":"uint256"},{"name":"deadline","type":"uint256","indexed":false,"internalType":"uint256"}],"anonymous":false},{"type":"event","name":"EscrowDisputed","inputs":[{"name":"escrowId","type":"uint256","indexed":true,"internalType":"uint256"},{"name":"disputedBy","type":"address","indexed":false,"internalType":"address"},{"name":"reason","type":"string","indexed":false,"internalType":"string"}],"anonymous":false},{"type":"event","name":"EscrowExpired","inputs":[{"name":"escrowId","type":"uint256","indexed":true,"internalType":"uint256"},{"name":"refundAmount","type":"uint256","indexed":false,"internalType":"uint256"}],"anonymous":false},{"type":"event","name":"EscrowReleased","inputs":[{"name":"escrowId","type":"uint256","indexed":true,"internalType":"uint256"},{"name":"agentAmount","type":"uint256","indexed":false,"internalType":"uint256"},{"name":"feeAmount","type":"uint256","indexed":false,"internalType":"uint256"}],"anonymous":false},{"type":"event","name":"JobCompleted","inputs":[{"name":"escrowId","type":"uint256","indexed":true,"internalType":"uint256"},{"name":"resultHash","type":"string","indexed":false,"internalType":"string"},{"name":"timestamp","type":"uint256","indexed":false,"internalType":"uint256"}],"anonymous":false},{"type":"event","name":"JobStarted","inputs":[{"name":"escrowId","type":"uint256","indexed":true,"internalType":"uint256"},{"name":"agentTokenId","type":"uint256","indexed":true,"internalType":"uint256"},{"name":"timestamp","type":"uint256","indexed":false,"internalType":"uint256"}],"anonymous":false}],"bytecode":{"object":"0x60a06040526101f46003556203f480600455655af3107a400060055560016006556001600c55348015610030575f5ffd5b5060405161515438038061515483398181016040528101906100529190610286565b5f73ffffffffffffffffffffffffffffffffffffffff168273ffffffffffffffffffffffffffffffffffffffff16036100c0576040517f08c379a00000000000000000000000000000000000000000000000000000000081526004016100b79061031e565b60405180910390fd5b5f73ffffffffffffffffffffffffffffffffffffffff168173ffffffffffffffffffffffffffffffffffffffff160361012e576040517f08c379a000000000000000000000000000000000000000000000000000000000815260040161012590610386565b60405180910390fd5b8173ffffffffffffffffffffffffffffffffffffffff1660808173ffffffffffffffffffffffffffffffffffffffff1681525050335f5f6101000a81548173ffffffffffffffffffffffffffffffffffffffff021916908373ffffffffffffffffffffffffffffffffffffffff1602179055508060015f6101000a81548173ffffffffffffffffffffffffffffffffffffffff021916908373ffffffffffffffffffffffffffffffffffffffff1602179055503360025f6101000a81548173ffffffffffffffffffffffffffffffffffffffff021916908373ffffffffffffffffffffffffffffffffffffffff16021790555050506103a4565b5f5ffd5b5f73ffffffffffffffffffffffffffffffffffffffff82169050919050565b5f6102558261022c565b9050919050565b6102658161024b565b811461026f575f5ffd5b50565b5f815190506102808161025c565b92915050565b5f5f6040838503121561029c5761029b610228565b5b5f6102a985828601610272565b92505060206102ba85828601610272565b9150509250929050565b5f82825260208201905092915050565b7f496e76616c696420736f756c20636f6e747261637400000000000000000000005f82015250565b5f6103086015836102c4565b9150610313826102d4565b602082019050919050565b5f6020820190508181035f830152610335816102fc565b9050919050565b7f496e76616c6964206172626974657200000000000000000000000000000000005f82015250565b5f610370600f836102c4565b915061037b8261033c565b602082019050919050565b5f6020820190508181035f83015261039d81610364565b9050919050565b608051614d8a6103ca5f395f8181611468015281816114e501526115c00152614d8a5ff3fe6080604052600436106101e2575f3560e01c806389cb29dd11610101578063d55be8c611610094578063e74b981b11610063578063e74b981b146106e7578063f2f659601461070f578063f2fde38b14610737578063fe25e00a1461075f576101e2565b8063d55be8c614610645578063dcb056111461066f578063e018243614610697578063e1255294146106bf576101e2565b8063c0417e58116100d0578063c0417e581461058f578063c158bc3d146105b7578063c781aa41146105f3578063d190508f1461061d576101e2565b806389cb29dd146104e95780638da5cb5b14610513578063a06db7dc1461053d578063b3120a2714610567576101e2565b80633fabe74f1161017957806364571c871161014857806364571c8714610417578063796ff483146104535780637c5ff95d1461047d5780637d19e596146104ad576101e2565b80633fabe74f1461035f57806341b7ac7d1461038757806346904840146103b1578063643b607c146103db576101e2565b80632df5c286116101b55780632df5c286146102a757806335659fb8146102cf5780633b09dba6146102f95780633f79f8fb14610323576101e2565b8063012f52ee146101e65780630b422abe1461022d57806313114a9d146102555780631c9c088a1461027f575b5f5ffd5b3480156101f1575f5ffd5b5061020c600480360381019061020791906132df565b610789565b6040516102249c9b9a9998979695949392919061343b565b60405180910390f35b348015610238575f5ffd5b50610253600480360381019061024e91906132df565b6109c1565b005b348015610260575f5ffd5b50610269610d67565b6040516102769190613508565b60405180910390f35b34801561028a575f5ffd5b506102a560048036038101906102a0919061354b565b610d6d565b005b3480156102b2575f5ffd5b506102cd60048036038101906102c891906132df565b610eac565b005b3480156102da575f5ffd5b506102e3610f44565b6040516102f09190613508565b60405180910390f35b348015610304575f5ffd5b5061030d610f4a565b60405161031a9190613508565b60405180910390f35b34801561032e575f5ffd5b5061034960048036038101906103449190613576565b610f50565b604051610356919061367d565b60405180910390f35b34801561036a575f5ffd5b5061038560048036038101906103809190613576565b610f76565b005b348015610392575f5ffd5b5061039b6113e7565b6040516103a89190613508565b60405180910390f35b3480156103bc575f5ffd5b506103c56113f0565b6040516103d2919061369d565b60405180910390f35b3480156103e6575f5ffd5b5061040160048036038101906103fc91906136b6565b611415565b60405161040e9190613508565b60405180910390f35b348015610422575f5ffd5b5061043d60048036038101906104389190613576565b611440565b60405161044a919061367d565b60405180910390f35b34801561045e575f5ffd5b50610467611466565b604051610474919061374f565b60405180910390f35b610497600480360381019061049291906137c9565b61148a565b6040516104a49190613508565b60405180910390f35b3480156104b8575f5ffd5b506104d360048036038101906104ce91906132df565b611ad8565b6040516104e091906139c2565b60405180910390f35b3480156104f4575f5ffd5b506104fd611e22565b60405161050a9190613508565b60405180910390f35b34801561051e575f5ffd5b50610527611e28565b604051610534919061369d565b60405180910390f35b348015610548575f5ffd5b50610551611e4c565b60405161055e9190613508565b60405180910390f35b348015610572575f5ffd5b5061058d600480360381019061058891906139e2565b611e52565b005b34801561059a575f5ffd5b506105b560048036038101906105b091906132df565b61212f565b005b3480156105c2575f5ffd5b506105dd60048036038101906105d891906136b6565b61220c565b6040516105ea9190613508565b60405180910390f35b3480156105fe575f5ffd5b50610607612237565b6040516106149190613508565b60405180910390f35b348015610628575f5ffd5b50610643600480360381019061063e91906139e2565b61223d565b005b348015610650575f5ffd5b50610659612471565b6040516106669190613508565b60405180910390f35b34801561067a575f5ffd5b50610695600480360381019061069091906132df565b612477565b005b3480156106a2575f5ffd5b506106bd60048036038101906106b891906132df565b6128a8565b005b3480156106ca575f5ffd5b506106e560048036038101906106e091906132df565b612bbc565b005b3480156106f2575f5ffd5b5061070d6004803603810190610708919061354b565b612d8c565b005b34801561071a575f5ffd5b50610735600480360381019061073091906132df565b612ecb565b005b348015610742575f5ffd5b5061075d6004803603810190610758919061354b565b612f63565b005b34801561076a575f5ffd5b506107736130a1565b604051610780919061369d565b60405180910390f35b6009602052805f5260405f205f91509050805f015490806001015490806002015490806003015f9054906101000a900473ffffffffffffffffffffffffffffffffffffffff1690806004015f9054906101000a900473ffffffffffffffffffffffffffffffffffffffff169080600501549080600601549080600701549080600801805461081690613a6c565b80601f016020809104026020016040519081016040528092919081815260200182805461084290613a6c565b801561088d5780601f106108645761010080835404028352916020019161088d565b820191905f5260205f20905b81548152906001019060200180831161087057829003601f168201915b5050505050908060090180546108a290613a6c565b80601f01602080910402602001604051908101604052809291908181526020018280546108ce90613a6c565b80156109195780601f106108f057610100808354040283529160200191610919565b820191905f5260205f20905b8154815290600101906020018083116108fc57829003601f168201915b50505050509080600a01805461092e90613a6c565b80601f016020809104026020016040519081016040528092919081815260200182805461095a90613a6c565b80156109a55780601f1061097c576101008083540402835291602001916109a5565b820191905f5260205f20905b81548152906001019060200180831161098857829003601f168201915b50505050509080600b015f9054906101000a900460ff1690508c565b6001600c5414610a06576040517f08c379a00000000000000000000000000000000000000000000000000000000081526004016109fd90613ae6565b60405180910390fd5b6002600c81905550805f81118015610a1f575060065481105b610a5e576040517f08c379a0000000000000000000000000000000000000000000000000000000008152600401610a5590613b4e565b60405180910390fd5b5f60095f8481526020019081526020015f2090505f6006811115610a8557610a846133c8565b5b81600b015f9054906101000a900460ff166006811115610aa857610aa76133c8565b5b1480610ae8575060016006811115610ac357610ac26133c8565b5b81600b015f9054906101000a900460ff166006811115610ae657610ae56133c8565b5b145b610b27576040517f08c379a0000000000000000000000000000000000000000000000000000000008152600401610b1e90613bb6565b60405180910390fd5b6004548160070154610b399190613c01565b4211610b7a576040517f08c379a0000000000000000000000000000000000000000000000000000000008152600401610b7190613c7e565b60405180910390fd5b806003015f9054906101000a900473ffffffffffffffffffffffffffffffffffffffff1673ffffffffffffffffffffffffffffffffffffffff163373ffffffffffffffffffffffffffffffffffffffff1614610c0b576040517f08c379a0000000000000000000000000000000000000000000000000000000008152600401610c0290613ce6565b60405180910390fd5b600581600b015f6101000a81548160ff02191690836006811115610c3257610c316133c8565b5b021790555060085f815480929190610c4990613d04565b91905055505f816003015f9054906101000a900473ffffffffffffffffffffffffffffffffffffffff1673ffffffffffffffffffffffffffffffffffffffff168260050154604051610c9a90613d58565b5f6040518083038185875af1925050503d805f8114610cd4576040519150601f19603f3d011682016040523d82523d5f602084013e610cd9565b606091505b5050905080610d1d576040517f08c379a0000000000000000000000000000000000000000000000000000000008152600401610d1490613db6565b60405180910390fd5b837f6a3492c313253b8685dafc62e092d35b838f47581d5fa40713ecaa507097ebc98360050154604051610d519190613508565b60405180910390a25050506001600c8190555050565b60075481565b5f5f9054906101000a900473ffffffffffffffffffffffffffffffffffffffff1673ffffffffffffffffffffffffffffffffffffffff163373ffffffffffffffffffffffffffffffffffffffff1614610dfb576040517f08c379a0000000000000000000000000000000000000000000000000000000008152600401610df290613e1e565b60405180910390fd5b5f73ffffffffffffffffffffffffffffffffffffffff168173ffffffffffffffffffffffffffffffffffffffff1603610e69576040517f08c379a0000000000000000000000000000000000000000000000000000000008152600401610e6090613e86565b60405180910390fd5b8060015f6101000a81548173ffffffffffffffffffffffffffffffffffffffff021916908373ffffffffffffffffffffffffffffffffffffffff16021790555050565b5f5f9054906101000a900473ffffffffffffffffffffffffffffffffffffffff1673ffffffffffffffffffffffffffffffffffffffff163373ffffffffffffffffffffffffffffffffffffffff1614610f3a576040517f08c379a0000000000000000000000000000000000000000000000000000000008152600401610f3190613e1e565b60405180910390fd5b8060058190555050565b60035481565b60055481565b6060610f6d600b5f8681526020019081526020015f2084846130c6565b90509392505050565b6001600c5414610fbb576040517f08c379a0000000000000000000000000000000000000000000000000000000008152600401610fb290613ae6565b60405180910390fd5b6002600c8190555060015f9054906101000a900473ffffffffffffffffffffffffffffffffffffffff1673ffffffffffffffffffffffffffffffffffffffff163373ffffffffffffffffffffffffffffffffffffffff1614611052576040517f08c379a000000000000000000000000000000000000000000000000000000000815260040161104990613eee565b60405180910390fd5b825f81118015611063575060065481105b6110a2576040517f08c379a000000000000000000000000000000000000000000000000000000000815260040161109990613b4e565b60405180910390fd5b5f60095f8681526020019081526020015f209050600360068111156110ca576110c96133c8565b5b81600b015f9054906101000a900460ff1660068111156110ed576110ec6133c8565b5b1461112d576040517f08c379a000000000000000000000000000000000000000000000000000000000815260040161112490613f56565b60405180910390fd5b612710838561113c9190613c01565b1461117c576040517f08c379a000000000000000000000000000000000000000000000000000000000815260040161117390613fbe565b60405180910390fd5b600481600b015f6101000a81548160ff021916908360068111156111a3576111a26133c8565b5b021790555060085f8154809291906111ba90613d04565b91905055505f6127108583600501546111d39190613fdc565b6111dd919061404a565b90505f8183600501546111f0919061407a565b90505f8211156112c7575f836003015f9054906101000a900473ffffffffffffffffffffffffffffffffffffffff1673ffffffffffffffffffffffffffffffffffffffff168360405161124290613d58565b5f6040518083038185875af1925050503d805f811461127c576040519150601f19603f3d011682016040523d82523d5f602084013e611281565b606091505b50509050806112c5576040517f08c379a00000000000000000000000000000000000000000000000000000000081526004016112bc906140f7565b60405180910390fd5b505b5f81111561139c575f836004015f9054906101000a900473ffffffffffffffffffffffffffffffffffffffff1673ffffffffffffffffffffffffffffffffffffffff168260405161131790613d58565b5f6040518083038185875af1925050503d805f8114611351576040519150601f19603f3d011682016040523d82523d5f602084013e611356565b606091505b505090508061139a576040517f08c379a00000000000000000000000000000000000000000000000000000000081526004016113919061415f565b60405180910390fd5b505b867f959dc01840aa516bf9407cffa45326c7b6821c48feff7b91eb0c743c8f460fd683836040516113ce92919061417d565b60405180910390a2505050506001600c81905550505050565b5f600854905090565b60025f9054906101000a900473ffffffffffffffffffffffffffffffffffffffff1681565b600a602052815f5260405f20818154811061142e575f80fd5b905f5260205f20015f91509150505481565b606061145d600a5f8681526020019081526020015f2084846130c6565b90509392505050565b7f000000000000000000000000000000000000000000000000000000000000000081565b5f6001600c54146114d0576040517f08c379a00000000000000000000000000000000000000000000000000000000081526004016114c790613ae6565b60405180910390fd5b6002600c81905550855f8111801561157457507f000000000000000000000000000000000000000000000000000000000000000073ffffffffffffffffffffffffffffffffffffffff16634879a9a66040518163ffffffff1660e01b8152600401602060405180830381865afa15801561154c573d5f5f3e3d5ffd5b505050506040513d601f19601f8201168201806040525081019061157091906141b8565b8111155b6115b3576040517f08c379a00000000000000000000000000000000000000000000000000000000081526004016115aa9061422d565b60405180910390fd5b855f8111801561164f57507f000000000000000000000000000000000000000000000000000000000000000073ffffffffffffffffffffffffffffffffffffffff16634879a9a66040518163ffffffff1660e01b8152600401602060405180830381865afa158015611627573d5f5f3e3d5ffd5b505050506040513d601f19601f8201168201806040525081019061164b91906141b8565b8111155b61168e576040517f08c379a00000000000000000000000000000000000000000000000000000000081526004016116859061422d565b60405180910390fd5b6005543410156116d3576040517f08c379a00000000000000000000000000000000000000000000000000000000081526004016116ca90614295565b60405180910390fd5b428411611715576040517f08c379a000000000000000000000000000000000000000000000000000000000815260040161170c906142fd565b60405180910390fd5b868803611757576040517f08c379a000000000000000000000000000000000000000000000000000000000815260040161174e90614365565b60405180910390fd5b5f8686905011801561176e57506103e88686905011155b6117ad576040517f08c379a00000000000000000000000000000000000000000000000000000000081526004016117a4906143cd565b60405180910390fd5b5f60065f8154809291906117c0906143eb565b9190505590506040518061018001604052808281526020018a81526020018981526020013373ffffffffffffffffffffffffffffffffffffffff1681526020015f73ffffffffffffffffffffffffffffffffffffffff16815260200134815260200142815260200186815260200188888080601f0160208091040260200160405190810160405280939291908181526020018383808284375f81840152601f19601f82011690508083019250505050505050815260200160405180602001604052805f815250815260200160405180602001604052805f81525081526020015f60068111156118b2576118b16133c8565b5b81525060095f8381526020019081526020015f205f820151815f015560208201518160010155604082015181600201556060820151816003015f6101000a81548173ffffffffffffffffffffffffffffffffffffffff021916908373ffffffffffffffffffffffffffffffffffffffff1602179055506080820151816004015f6101000a81548173ffffffffffffffffffffffffffffffffffffffff021916908373ffffffffffffffffffffffffffffffffffffffff16021790555060a0820151816005015560c0820151816006015560e082015181600701556101008201518160080190816119a29190614607565b506101208201518160090190816119b99190614607565b5061014082015181600a0190816119d09190614607565b5061016082015181600b015f6101000a81548160ff021916908360068111156119fc576119fb6133c8565b5b0217905550905050600a5f8a81526020019081526020015f2081908060018154018082558091505060019003905f5260205f20015f9091909190915055600b5f8981526020019081526020015f2081908060018154018082558091505060019003905f5260205f20015f909190919091505560085f815480929190611a80906143eb565b91905055508789827f9861743693d07d87bfe8dcfa0ef0975cde0bb941a7dfda486fd68890c3f013e93489604051611ab992919061417d565b60405180910390a48093505050506001600c8190555095945050505050565b611ae061320e565b5f82118015611af0575060065482105b611b2f576040517f08c379a0000000000000000000000000000000000000000000000000000000008152600401611b2690613b4e565b60405180910390fd5b60095f8381526020019081526020015f20604051806101800160405290815f82015481526020016001820154815260200160028201548152602001600382015f9054906101000a900473ffffffffffffffffffffffffffffffffffffffff1673ffffffffffffffffffffffffffffffffffffffff1673ffffffffffffffffffffffffffffffffffffffff168152602001600482015f9054906101000a900473ffffffffffffffffffffffffffffffffffffffff1673ffffffffffffffffffffffffffffffffffffffff1673ffffffffffffffffffffffffffffffffffffffff168152602001600582015481526020016006820154815260200160078201548152602001600882018054611c4190613a6c565b80601f0160208091040260200160405190810160405280929190818152602001828054611c6d90613a6c565b8015611cb85780601f10611c8f57610100808354040283529160200191611cb8565b820191905f5260205f20905b815481529060010190602001808311611c9b57829003601f168201915b50505050508152602001600982018054611cd190613a6c565b80601f0160208091040260200160405190810160405280929190818152602001828054611cfd90613a6c565b8015611d485780601f10611d1f57610100808354040283529160200191611d48565b820191905f5260205f20905b815481529060010190602001808311611d2b57829003601f168201915b50505050508152602001600a82018054611d6190613a6c565b80601f0160208091040260200160405190810160405280929190818152602001828054611d8d90613a6c565b8015611dd85780601f10611daf57610100808354040283529160200191611dd8565b820191905f5260205f20905b815481529060010190602001808311611dbb57829003601f168201915b50505050508152602001600b82015f9054906101000a900460ff166006811115611e0557611e046133c8565b5b6006811115611e1757611e166133c8565b5b815250509050919050565b60065481565b5f5f9054906101000a900473ffffffffffffffffffffffffffffffffffffffff1681565b60045481565b825f81118015611e63575060065481105b611ea2576040517f08c379a0000000000000000000000000000000000000000000000000000000008152600401611e9990613b4e565b60405180910390fd5b5f60095f8681526020019081526020015f20905060016006811115611eca57611ec96133c8565b5b81600b015f9054906101000a900460ff166006811115611eed57611eec6133c8565b5b1480611f2d575060026006811115611f0857611f076133c8565b5b81600b015f9054906101000a900460ff166006811115611f2b57611f2a6133c8565b5b145b611f6c576040517f08c379a0000000000000000000000000000000000000000000000000000000008152600401611f6390614720565b60405180910390fd5b806003015f9054906101000a900473ffffffffffffffffffffffffffffffffffffffff1673ffffffffffffffffffffffffffffffffffffffff163373ffffffffffffffffffffffffffffffffffffffff1614806120175750806004015f9054906101000a900473ffffffffffffffffffffffffffffffffffffffff1673ffffffffffffffffffffffffffffffffffffffff163373ffffffffffffffffffffffffffffffffffffffff16145b612056576040517f08c379a000000000000000000000000000000000000000000000000000000000815260040161204d90614788565b60405180910390fd5b5f8484905011801561206d57506101188484905011155b6120ac576040517f08c379a00000000000000000000000000000000000000000000000000000000081526004016120a3906147f0565b60405180910390fd5b838382600a0191826120bf929190614818565b50600381600b015f6101000a81548160ff021916908360068111156120e7576120e66133c8565b5b0217905550847fc523357a17c19a0da11b08e9f4d7e4fbed304cbe1be1d3583e4d5a677d75d7093386866040516121209392919061491f565b60405180910390a25050505050565b5f5f9054906101000a900473ffffffffffffffffffffffffffffffffffffffff1673ffffffffffffffffffffffffffffffffffffffff163373ffffffffffffffffffffffffffffffffffffffff16146121bd576040517f08c379a00000000000000000000000000000000000000000000000000000000081526004016121b490613e1e565b60405180910390fd5b6103e8811115612202576040517f08c379a00000000000000000000000000000000000000000000000000000000081526004016121f990614999565b60405180910390fd5b8060038190555050565b600b602052815f5260405f208181548110612225575f80fd5b905f5260205f20015f91509150505481565b60085481565b825f8111801561224e575060065481105b61228d576040517f08c379a000000000000000000000000000000000000000000000000000000000815260040161228490613b4e565b60405180910390fd5b5f60095f8681526020019081526020015f209050600160068111156122b5576122b46133c8565b5b81600b015f9054906101000a900460ff1660068111156122d8576122d76133c8565b5b14612318576040517f08c379a000000000000000000000000000000000000000000000000000000000815260040161230f90614a01565b60405180910390fd5b806004015f9054906101000a900473ffffffffffffffffffffffffffffffffffffffff1673ffffffffffffffffffffffffffffffffffffffff163373ffffffffffffffffffffffffffffffffffffffff16146123a9576040517f08c379a00000000000000000000000000000000000000000000000000000000081526004016123a090614a69565b60405180910390fd5b5f84849050116123ee576040517f08c379a00000000000000000000000000000000000000000000000000000000081526004016123e590614ad1565b60405180910390fd5b8383826009019182612401929190614818565b50600281600b015f6101000a81548160ff02191690836006811115612429576124286133c8565b5b0217905550847f48c3fe5ae2efee5b48b4eca8747bdaaa42ff4601df188f4cc27410fbbefb6e2b85854260405161246293929190614aef565b60405180910390a25050505050565b6103e881565b6001600c54146124bc576040517f08c379a00000000000000000000000000000000000000000000000000000000081526004016124b390613ae6565b60405180910390fd5b6002600c81905550805f811180156124d5575060065481105b612514576040517f08c379a000000000000000000000000000000000000000000000000000000000815260040161250b90613b4e565b60405180910390fd5b5f60095f8481526020019081526020015f2090506002600681111561253c5761253b6133c8565b5b81600b015f9054906101000a900460ff16600681111561255f5761255e6133c8565b5b1461259f576040517f08c379a000000000000000000000000000000000000000000000000000000000815260040161259690614b69565b60405180910390fd5b806003015f9054906101000a900473ffffffffffffffffffffffffffffffffffffffff1673ffffffffffffffffffffffffffffffffffffffff163373ffffffffffffffffffffffffffffffffffffffff1614612630576040517f08c379a000000000000000000000000000000000000000000000000000000000815260040161262790613ce6565b60405180910390fd5b5f61271060035483600501546126469190613fdc565b612650919061404a565b90505f818360050154612663919061407a565b9050600483600b015f6101000a81548160ff0219169083600681111561268c5761268b6133c8565b5b02179055508160075f8282546126a29190613c01565b9250508190555060085f8154809291906126bb90613d04565b91905055505f836004015f9054906101000a900473ffffffffffffffffffffffffffffffffffffffff1673ffffffffffffffffffffffffffffffffffffffff168260405161270890613d58565b5f6040518083038185875af1925050503d805f8114612742576040519150601f19603f3d011682016040523d82523d5f602084013e612747565b606091505b505090508061278b576040517f08c379a00000000000000000000000000000000000000000000000000000000081526004016127829061415f565b60405180910390fd5b5f83111561285e575f60025f9054906101000a900473ffffffffffffffffffffffffffffffffffffffff1673ffffffffffffffffffffffffffffffffffffffff16846040516127d990613d58565b5f6040518083038185875af1925050503d805f8114612813576040519150601f19603f3d011682016040523d82523d5f602084013e612818565b606091505b505090508061285c576040517f08c379a000000000000000000000000000000000000000000000000000000000815260040161285390614bd1565b60405180910390fd5b505b857f3f324d125e471a3087ea47eb7b28f36f262807b16344d6ed0883a748c7386ced838560405161289092919061417d565b60405180910390a250505050506001600c8190555050565b6001600c54146128ed576040517f08c379a00000000000000000000000000000000000000000000000000000000081526004016128e490613ae6565b60405180910390fd5b6002600c81905550805f81118015612906575060065481105b612945576040517f08c379a000000000000000000000000000000000000000000000000000000000815260040161293c90613b4e565b60405180910390fd5b5f60095f8481526020019081526020015f2090505f600681111561296c5761296b6133c8565b5b81600b015f9054906101000a900460ff16600681111561298f5761298e6133c8565b5b146129cf576040517f08c379a00000000000000000000000000000000000000000000000000000000081526004016129c690614c39565b60405180910390fd5b806003015f9054906101000a900473ffffffffffffffffffffffffffffffffffffffff1673ffffffffffffffffffffffffffffffffffffffff163373ffffffffffffffffffffffffffffffffffffffff1614612a60576040517f08c379a0000000000000000000000000000000000000000000000000000000008152600401612a5790613ce6565b60405180910390fd5b600681600b015f6101000a81548160ff02191690836006811115612a8757612a866133c8565b5b021790555060085f815480929190612a9e90613d04565b91905055505f816003015f9054906101000a900473ffffffffffffffffffffffffffffffffffffffff1673ffffffffffffffffffffffffffffffffffffffff168260050154604051612aef90613d58565b5f6040518083038185875af1925050503d805f8114612b29576040519150601f19603f3d011682016040523d82523d5f602084013e612b2e565b606091505b5050905080612b72576040517f08c379a0000000000000000000000000000000000000000000000000000000008152600401612b6990613db6565b60405180910390fd5b837fdc48a08bb890bd1b8e4261212a97a5e711e80830d96ba56b362f3ac5f427d51e8360050154604051612ba69190613508565b60405180910390a25050506001600c8190555050565b805f81118015612bcd575060065481105b612c0c576040517f08c379a0000000000000000000000000000000000000000000000000000000008152600401612c0390613b4e565b60405180910390fd5b5f60095f8481526020019081526020015f2090505f6006811115612c3357612c326133c8565b5b81600b015f9054906101000a900460ff166006811115612c5657612c556133c8565b5b14612c96576040517f08c379a0000000000000000000000000000000000000000000000000000000008152600401612c8d90614ca1565b60405180910390fd5b80600701544210612cdc576040517f08c379a0000000000000000000000000000000000000000000000000000000008152600401612cd390614d09565b60405180910390fd5b33816004015f6101000a81548173ffffffffffffffffffffffffffffffffffffffff021916908373ffffffffffffffffffffffffffffffffffffffff160217905550600181600b015f6101000a81548160ff02191690836006811115612d4557612d446133c8565b5b02179055508060020154837f40a72beabb5979a2c1843a56af890c1fe73e84ba9da6054cca0981505400909042604051612d7f9190613508565b60405180910390a3505050565b5f5f9054906101000a900473ffffffffffffffffffffffffffffffffffffffff1673ffffffffffffffffffffffffffffffffffffffff163373ffffffffffffffffffffffffffffffffffffffff1614612e1a576040517f08c379a0000000000000000000000000000000000000000000000000000000008152600401612e1190613e1e565b60405180910390fd5b5f73ffffffffffffffffffffffffffffffffffffffff168173ffffffffffffffffffffffffffffffffffffffff1603612e88576040517f08c379a0000000000000000000000000000000000000000000000000000000008152600401612e7f90613e86565b60405180910390fd5b8060025f6101000a81548173ffffffffffffffffffffffffffffffffffffffff021916908373ffffffffffffffffffffffffffffffffffffffff16021790555050565b5f5f9054906101000a900473ffffffffffffffffffffffffffffffffffffffff1673ffffffffffffffffffffffffffffffffffffffff163373ffffffffffffffffffffffffffffffffffffffff1614612f59576040517f08c379a0000000000000000000000000000000000000000000000000000000008152600401612f5090613e1e565b60405180910390fd5b8060048190555050565b5f5f9054906101000a900473ffffffffffffffffffffffffffffffffffffffff1673ffffffffffffffffffffffffffffffffffffffff163373ffffffffffffffffffffffffffffffffffffffff1614612ff1576040517f08c379a0000000000000000000000000000000000000000000000000000000008152600401612fe890613e1e565b60405180910390fd5b5f73ffffffffffffffffffffffffffffffffffffffff168173ffffffffffffffffffffffffffffffffffffffff160361305f576040517f08c379a000000000000000000000000000000000000000000000000000000000815260040161305690613e86565b60405180910390fd5b805f5f6101000a81548173ffffffffffffffffffffffffffffffffffffffff021916908373ffffffffffffffffffffffffffffffffffffffff16021790555050565b60015f9054906101000a900473ffffffffffffffffffffffffffffffffffffffff1681565b60605f84805490509050808410613128575f67ffffffffffffffff8111156130f1576130f0614432565b5b60405190808252806020026020018201604052801561311f5781602001602082028036833780820191505090505b50915050613207565b5f83856131359190613c01565b905081811115613143578190505b5f8582613150919061407a565b90505f8167ffffffffffffffff81111561316d5761316c614432565b5b60405190808252806020026020018201604052801561319b5781602001602082028036833780820191505090505b5090505f5f90505b828110156131fe578881896131b89190613c01565b815481106131c9576131c8614d27565b5b905f5260205f2001548282815181106131e5576131e4614d27565b5b60200260200101818152505080806001019150506131a3565b50809450505050505b9392505050565b6040518061018001604052805f81526020015f81526020015f81526020015f73ffffffffffffffffffffffffffffffffffffffff1681526020015f73ffffffffffffffffffffffffffffffffffffffff1681526020015f81526020015f81526020015f81526020016060815260200160608152602001606081526020015f600681111561329e5761329d6133c8565b5b81525090565b5f5ffd5b5f5ffd5b5f819050919050565b6132be816132ac565b81146132c8575f5ffd5b50565b5f813590506132d9816132b5565b92915050565b5f602082840312156132f4576132f36132a4565b5b5f613301848285016132cb565b91505092915050565b613313816132ac565b82525050565b5f73ffffffffffffffffffffffffffffffffffffffff82169050919050565b5f61334282613319565b9050919050565b61335281613338565b82525050565b5f81519050919050565b5f82825260208201905092915050565b8281835e5f83830152505050565b5f601f19601f8301169050919050565b5f61339a82613358565b6133a48185613362565b93506133b4818560208601613372565b6133bd81613380565b840191505092915050565b7f4e487b71000000000000000000000000000000000000000000000000000000005f52602160045260245ffd5b60078110613406576134056133c8565b5b50565b5f819050613416826133f5565b919050565b5f61342582613409565b9050919050565b6134358161341b565b82525050565b5f6101808201905061344f5f83018f61330a565b61345c602083018e61330a565b613469604083018d61330a565b613476606083018c613349565b613483608083018b613349565b61349060a083018a61330a565b61349d60c083018961330a565b6134aa60e083018861330a565b8181036101008301526134bd8187613390565b90508181036101208301526134d28186613390565b90508181036101408301526134e78185613390565b90506134f761016083018461342c565b9d9c50505050505050505050505050565b5f60208201905061351b5f83018461330a565b92915050565b61352a81613338565b8114613534575f5ffd5b50565b5f8135905061354581613521565b92915050565b5f602082840312156135605761355f6132a4565b5b5f61356d84828501613537565b91505092915050565b5f5f5f6060848603121561358d5761358c6132a4565b5b5f61359a868287016132cb565b93505060206135ab868287016132cb565b92505060406135bc868287016132cb565b9150509250925092565b5f81519050919050565b5f82825260208201905092915050565b5f819050602082019050919050565b6135f8816132ac565b82525050565b5f61360983836135ef565b60208301905092915050565b5f602082019050919050565b5f61362b826135c6565b61363581856135d0565b9350613640836135e0565b805f5b8381101561367057815161365788826135fe565b975061366283613615565b925050600181019050613643565b5085935050505092915050565b5f6020820190508181035f8301526136958184613621565b905092915050565b5f6020820190506136b05f830184613349565b92915050565b5f5f604083850312156136cc576136cb6132a4565b5b5f6136d9858286016132cb565b92505060206136ea858286016132cb565b9150509250929050565b5f819050919050565b5f61371761371261370d84613319565b6136f4565b613319565b9050919050565b5f613728826136fd565b9050919050565b5f6137398261371e565b9050919050565b6137498161372f565b82525050565b5f6020820190506137625f830184613740565b92915050565b5f5ffd5b5f5ffd5b5f5ffd5b5f5f83601f84011261378957613788613768565b5b8235905067ffffffffffffffff8111156137a6576137a561376c565b5b6020830191508360018202830111156137c2576137c1613770565b5b9250929050565b5f5f5f5f5f608086880312156137e2576137e16132a4565b5b5f6137ef888289016132cb565b9550506020613800888289016132cb565b945050604086013567ffffffffffffffff811115613821576138206132a8565b5b61382d88828901613774565b93509350506060613840888289016132cb565b9150509295509295909350565b61385681613338565b82525050565b5f82825260208201905092915050565b5f61387682613358565b613880818561385c565b9350613890818560208601613372565b61389981613380565b840191505092915050565b6138ad8161341b565b82525050565b5f61018083015f8301516138c95f8601826135ef565b5060208301516138dc60208601826135ef565b5060408301516138ef60408601826135ef565b506060830151613902606086018261384d565b506080830151613915608086018261384d565b5060a083015161392860a08601826135ef565b5060c083015161393b60c08601826135ef565b5060e083015161394e60e08601826135ef565b50610100830151848203610100860152613968828261386c565b915050610120830151848203610120860152613984828261386c565b9150506101408301518482036101408601526139a0828261386c565b9150506101608301516139b76101608601826138a4565b508091505092915050565b5f6020820190508181035f8301526139da81846138b3565b905092915050565b5f5f5f604084860312156139f9576139f86132a4565b5b5f613a06868287016132cb565b935050602084013567ffffffffffffffff811115613a2757613a266132a8565b5b613a3386828701613774565b92509250509250925092565b7f4e487b71000000000000000000000000000000000000000000000000000000005f52602260045260245ffd5b5f6002820490506001821680613a8357607f821691505b602082108103613a9657613a95613a3f565b5b50919050565b7f5265656e7472616e7400000000000000000000000000000000000000000000005f82015250565b5f613ad0600983613362565b9150613adb82613a9c565b602082019050919050565b5f6020820190508181035f830152613afd81613ac4565b9050919050565b7f457363726f77206e6f7420666f756e64000000000000000000000000000000005f82015250565b5f613b38601083613362565b9150613b4382613b04565b602082019050919050565b5f6020820190508181035f830152613b6581613b2c565b9050919050565b7f43616e6e6f742065787069726520696e207468697320737461746500000000005f82015250565b5f613ba0601b83613362565b9150613bab82613b6c565b602082019050919050565b5f6020820190508181035f830152613bcd81613b94565b9050919050565b7f4e487b71000000000000000000000000000000000000000000000000000000005f52601160045260245ffd5b5f613c0b826132ac565b9150613c16836132ac565b9250828201905080821115613c2e57613c2d613bd4565b5b92915050565b7f4e6f7420796574206578706972656400000000000000000000000000000000005f82015250565b5f613c68600f83613362565b9150613c7382613c34565b602082019050919050565b5f6020820190508181035f830152613c9581613c5c565b9050919050565b7f4e6f7420636c69656e74000000000000000000000000000000000000000000005f82015250565b5f613cd0600a83613362565b9150613cdb82613c9c565b602082019050919050565b5f6020820190508181035f830152613cfd81613cc4565b9050919050565b5f613d0e826132ac565b91505f8203613d2057613d1f613bd4565b5b600182039050919050565b5f81905092915050565b50565b5f613d435f83613d2b565b9150613d4e82613d35565b5f82019050919050565b5f613d6282613d38565b9150819050919050565b7f526566756e64206661696c6564000000000000000000000000000000000000005f82015250565b5f613da0600d83613362565b9150613dab82613d6c565b602082019050919050565b5f6020820190508181035f830152613dcd81613d94565b9050919050565b7f4e6f74206f776e657200000000000000000000000000000000000000000000005f82015250565b5f613e08600983613362565b9150613e1382613dd4565b602082019050919050565b5f6020820190508181035f830152613e3581613dfc565b9050919050565b7f5a65726f206164647265737300000000000000000000000000000000000000005f82015250565b5f613e70600c83613362565b9150613e7b82613e3c565b602082019050919050565b5f6020820190508181035f830152613e9d81613e64565b9050919050565b7f4e6f7420617262697465720000000000000000000000000000000000000000005f82015250565b5f613ed8600b83613362565b9150613ee382613ea4565b602082019050919050565b5f6020820190508181035f830152613f0581613ecc565b9050919050565b7f4e6f7420646973707574656400000000000000000000000000000000000000005f82015250565b5f613f40600c83613362565b9150613f4b82613f0c565b602082019050919050565b5f6020820190508181035f830152613f6d81613f34565b9050919050565b7f4d75737420746f74616c203130302500000000000000000000000000000000005f82015250565b5f613fa8600f83613362565b9150613fb382613f74565b602082019050919050565b5f6020820190508181035f830152613fd581613f9c565b9050919050565b5f613fe6826132ac565b9150613ff1836132ac565b9250828202613fff816132ac565b9150828204841483151761401657614015613bd4565b5b5092915050565b7f4e487b71000000000000000000000000000000000000000000000000000000005f52601260045260245ffd5b5f614054826132ac565b915061405f836132ac565b92508261406f5761406e61401d565b5b828204905092915050565b5f614084826132ac565b915061408f836132ac565b92508282039050818111156140a7576140a6613bd4565b5b92915050565b7f436c69656e7420726566756e64206661696c65640000000000000000000000005f82015250565b5f6140e1601483613362565b91506140ec826140ad565b602082019050919050565b5f6020820190508181035f83015261410e816140d5565b9050919050565b7f4167656e74207061796d656e74206661696c65640000000000000000000000005f82015250565b5f614149601483613362565b915061415482614115565b602082019050919050565b5f6020820190508181035f8301526141768161413d565b9050919050565b5f6040820190506141905f83018561330a565b61419d602083018461330a565b9392505050565b5f815190506141b2816132b5565b92915050565b5f602082840312156141cd576141cc6132a4565b5b5f6141da848285016141a4565b91505092915050565b7f496e76616c696420746f6b656e000000000000000000000000000000000000005f82015250565b5f614217600d83613362565b9150614222826141e3565b602082019050919050565b5f6020820190508181035f8301526142448161420b565b9050919050565b7f42656c6f77206d696e696d756d000000000000000000000000000000000000005f82015250565b5f61427f600d83613362565b915061428a8261424b565b602082019050919050565b5f6020820190508181035f8301526142ac81614273565b9050919050565b7f446561646c696e6520696e2070617374000000000000000000000000000000005f82015250565b5f6142e7601083613362565b91506142f2826142b3565b602082019050919050565b5f6020820190508181035f830152614314816142db565b9050919050565b7f43616e6e6f7420686972652073656c66000000000000000000000000000000005f82015250565b5f61434f601083613362565b915061435a8261431b565b602082019050919050565b5f6020820190508181035f83015261437c81614343565b9050919050565b7f496e76616c6964206465736372697074696f6e000000000000000000000000005f82015250565b5f6143b7601383613362565b91506143c282614383565b602082019050919050565b5f6020820190508181035f8301526143e4816143ab565b9050919050565b5f6143f5826132ac565b91507fffffffffffffffffffffffffffffffffffffffffffffffffffffffffffffffff820361442757614426613bd4565b5b600182019050919050565b7f4e487b71000000000000000000000000000000000000000000000000000000005f52604160045260245ffd5b5f819050815f5260205f209050919050565b5f6020601f8301049050919050565b5f82821b905092915050565b5f600883026144bb7fffffffffffffffffffffffffffffffffffffffffffffffffffffffffffffffff82614480565b6144c58683614480565b95508019841693508086168417925050509392505050565b5f6144f76144f26144ed846132ac565b6136f4565b6132ac565b9050919050565b5f819050919050565b614510836144dd565b61452461451c826144fe565b84845461448c565b825550505050565b5f5f905090565b61453b61452c565b614546818484614507565b505050565b5f5b8281101561456c576145615f828401614533565b60018101905061454d565b505050565b601f8211156145bf57828211156145be5761458b8161445f565b61459483614471565b61459d85614471565b60208610156145aa575f90505b8083016145b98284038261454b565b505050505b5b505050565b5f82821c905092915050565b5f6145df5f19846008026145c4565b1980831691505092915050565b5f6145f783836145d0565b9150826002028217905092915050565b61461082613358565b67ffffffffffffffff81111561462957614628614432565b5b6146338254613a6c565b61463e828285614571565b5f60209050601f83116001811461466f575f841561465d578287015190505b61466785826145ec565b8655506146ce565b601f19841661467d8661445f565b5f5b828110156146a45784890151825560018201915060208501945060208101905061467f565b868310156146c157848901516146bd601f8916826145d0565b8355505b6001600288020188555050505b505050505050565b7f43616e6e6f74206469737075746520696e2074686973207374617465000000005f82015250565b5f61470a601c83613362565b9150614715826146d6565b602082019050919050565b5f6020820190508181035f830152614737816146fe565b9050919050565b7f4e6f74206120706172747920746f207468697320657363726f770000000000005f82015250565b5f614772601a83613362565b915061477d8261473e565b602082019050919050565b5f6020820190508181035f83015261479f81614766565b9050919050565b7f496e76616c696420726561736f6e0000000000000000000000000000000000005f82015250565b5f6147da600e83613362565b91506147e5826147a6565b602082019050919050565b5f6020820190508181035f830152614807816147ce565b9050919050565b5f82905092915050565b614822838361480e565b67ffffffffffffffff81111561483b5761483a614432565b5b6148458254613a6c565b614850828285614571565b5f601f83116001811461487d575f841561486b578287013590505b61487585826145ec565b8655506148dc565b601f19841661488b8661445f565b5f5b828110156148b25784890135825560018201915060208501945060208101905061488d565b868310156148cf57848901356148cb601f8916826145d0565b8355505b6001600288020188555050505b50505050505050565b828183375f83830152505050565b5f6148fe8385613362565b935061490b8385846148e5565b61491483613380565b840190509392505050565b5f6040820190506149325f830186613349565b81810360208301526149458184866148f3565b9050949350505050565b7f46656520746f6f206869676800000000000000000000000000000000000000005f82015250565b5f614983600c83613362565b915061498e8261494f565b602082019050919050565b5f6020820190508181035f8301526149b081614977565b9050919050565b7f4e6f7420696e2070726f677265737300000000000000000000000000000000005f82015250565b5f6149eb600f83613362565b91506149f6826149b7565b602082019050919050565b5f6020820190508181035f830152614a18816149df565b9050919050565b7f4e6f7420746865206167656e74000000000000000000000000000000000000005f82015250565b5f614a53600d83613362565b9150614a5e82614a1f565b602082019050919050565b5f6020820190508181035f830152614a8081614a47565b9050919050565b7f456d70747920726573756c7400000000000000000000000000000000000000005f82015250565b5f614abb600c83613362565b9150614ac682614a87565b602082019050919050565b5f6020820190508181035f830152614ae881614aaf565b9050919050565b5f6040820190508181035f830152614b088185876148f3565b9050614b17602083018461330a565b949350505050565b7f4e6f7420636f6d706c65746564000000000000000000000000000000000000005f82015250565b5f614b53600d83613362565b9150614b5e82614b1f565b602082019050919050565b5f6020820190508181035f830152614b8081614b47565b9050919050565b7f466565207472616e73666572206661696c6564000000000000000000000000005f82015250565b5f614bbb601383613362565b9150614bc682614b87565b602082019050919050565b5f6020820190508181035f830152614be881614baf565b9050919050565b7f43616e206f6e6c792063616e63656c206265666f7265207374617274000000005f82015250565b5f614c23601c83613362565b9150614c2e82614bef565b602082019050919050565b5f6020820190508181035f830152614c5081614c17565b9050919050565b7f4e6f7420696e2046756e646564207374617465000000000000000000000000005f82015250565b5f614c8b601383613362565b9150614c9682614c57565b602082019050919050565b5f6020820190508181035f830152614cb881614c7f565b9050919050565b7f446561646c696e652070617373656400000000000000000000000000000000005f82015250565b5f614cf3600f83613362565b9150614cfe82614cbf565b602082019050919050565b5f6020820190508181035f830152614d2081614ce7565b9050919050565b7f4e487b71000000000000000000000000000000000000000000000000000000005f52603260045260245ffdfea26469706673582212200e89582dbdb201dbc93fe979118e0733a1e52208b90cf87316c1e11441adc50764736f6c63430008210033","linkReferences":{}},"methodIdentifiers":{"MAX_FEE_BPS()":"d55be8c6","activeEscrowCount()":"c781aa41","agentEscrows(uint256,uint256)":"c158bc3d","approveAndRelease(uint256)":"dcb05611","arbiter()":"fe25e00a","cancelEscrow(uint256)":"e0182436","claimExpired(uint256)":"0b422abe","clientEscrows(uint256,uint256)":"643b607c","completeJob(uint256,string)":"d190508f","createEscrow(uint256,uint256,string,uint256)":"7c5ff95d","disputeJob(uint256,string)":"b3120a27","escrows(uint256)":"012f52ee","feeRecipient()":"46904840","getActiveEscrowCount()":"41b7ac7d","getEscrow(uint256)":"7d19e596","getEscrowsByAgent(uint256,uint256,uint256)":"3f79f8fb","getEscrowsByClient(uint256,uint256,uint256)":"64571c87","gracePeriod()":"a06db7dc","minEscrowAmount()":"3b09dba6","nextEscrowId()":"89cb29dd","owner()":"8da5cb5b","protocolFeeBps()":"35659fb8","resolveDispute(uint256,uint256,uint256)":"3fabe74f","setArbiter(address)":"1c9c088a","setFeeRecipient(address)":"e74b981b","setGracePeriod(uint256)":"f2f65960","setMinEscrowAmount(uint256)":"2df5c286","setProtocolFeeBps(uint256)":"c0417e58","soulContract()":"796ff483","startJob(uint256)":"e1255294","totalFees()":"13114a9d","transferOwnership(address)":"f2fde38b"},"id":0}