{"abi":[{"type":"function","name":"actionCount","inputs":[{"name":"","type":"uint256","internalType":"uint256"}],"outputs":[{"name":"","type":"uint256","internalType":"uint256"}],"stateMutability":"view"},{"type":"function","name":"agentToSoul","inputs":[{"name":"","type":"address","internalType":"address"}],"outputs":[{"name":"","type":"uint256","internalType":"uint256"}],"stateMutability":"view"},{"type":"function","name":"getSoul","inputs":[{"name":"agent","type":"address","internalType":"address"}],"outputs":[{"name":"name","type":"string","internalType":"string"},{"name":"model","type":"string","internalType":"string"},{"name":"creator","type":"address","internalType":"address"},{"name":"birthBlock","type":"uint256","internalType":"uint256"},{"name":"description","type":"string","internalType":"string"},{"name":"actions","type":"uint256","internalType":"uint256"}],"stateMutability":"view"},{"type":"function","name":"hasSoul","inputs":[{"name":"agent","type":"address","internalType":"address"}],"outputs":[{"name":"","type":"bool","internalType":"bool"}],"stateMutability":"view"},{"type":"function","name":"mintSoul","inputs":[{"name":"agent","type":"address","internalType":"address"},{"name":"name","type":"string","internalType":"string"},{"name":"model","type":"string","internalType":"string"},{"name":"description","type":"string","internalType":"string"}],"outputs":[{"name":"","type":"uint256","internalType":"uint256"}],"stateMutability":"nonpayable"},{"type":"function","name":"recordAction","inputs":[{"name":"tokenId","type":"uint256","internalType":"uint256"},{"name":"actionType","type":"string","internalType":"string"},{"name":"actionHash","type":"string","internalType":"string"}],"outputs":[],"stateMutability":"nonpayable"},{"type":"function","name":"souls","inputs":[{"name":"","type":"uint256","internalType":"uint256"}],"outputs":[{"name":"name","type":"string","internalType":"string"},{"name":"model","type":"string","internalType":"string"},{"name":"creator","type":"address","internalType":"address"},{"name":"birthBlock","type":"uint256","internalType":"uint256"},{"name":"description","type":"string","internalType":"string"},{"name":"exists","type":"bool","internalType":"bool"}],"stateMutability":"view"},{"type":"function","name":"totalSouls","inputs":[],"outputs":[{"name":"","type":"uint256","internalType":"uint256"}],"stateMutability":"view"},{"type":"function","name":"transfer","inputs":[{"name":"","type":"address","internalType":"address"},{"name":"","type":"uint256","internalType":"uint256"}],"outputs":[],"stateMutability":"pure"},{"type":"event","name":"ActionRecorded","inputs":[{"name":"tokenId","type":"uint256","indexed":true,"internalType":"uint256"},{"name":"actionType","type":"string","indexed":false,"internalType":"string"},{"name":"actionHash","type":"string","indexed":false,"internalType":"string"}],"anonymous":false},{"type":"event","name":"SoulMinted","inputs":[{"name":"tokenId","type":"uint256","indexed":true,"internalType":"uint256"},{"name":"agent","type":"address","indexed":true,"internalType":"address"},{"name":"name","type":"string","indexed":false,"internalType":"string"},{"name":"creator","type":"address","indexed":false,"internalType":"address"}],"anonymous":false}],"bytecode":{"object":"0x6080604052348015600e575f5ffd5b5061179f8061001c5f395ff3fe608060405234801561000f575f5ffd5b5060043610610091575f3560e01c80639570cba9116100645780639570cba91461014d578063a5a6998c1461017d578063a9059cbb14610199578063bdd75202146101b5578063f7c3328c146101e557610091565b80634879a9a61461009557806366cfe97f146100b35780637f0df684146100e857806393a363131461011d575b5f5ffd5b61009d610215565b6040516100aa9190610bfd565b60405180910390f35b6100cd60048036038101906100c89190610c81565b61021b565b6040516100df96959493929190610d2b565b60405180910390f35b61010260048036038101906100fd9190610dc9565b61052d565b60405161011496959493929190610e0e565b60405180910390f35b61013760048036038101906101329190610fae565b610721565b6040516101449190610bfd565b60405180910390f35b61016760048036038101906101629190610dc9565b6109d3565b6040516101749190610bfd565b60405180910390f35b61019760048036038101906101929190611066565b6109e8565b005b6101b360048036038101906101ae91906110ee565b610b4c565b005b6101cf60048036038101906101ca9190610c81565b610b87565b6040516101dc919061112c565b60405180910390f35b6101ff60048036038101906101fa9190610c81565b610bd0565b60405161020c9190610bfd565b60405180910390f35b60035481565b6060805f5f60605f5f60015f8973ffffffffffffffffffffffffffffffffffffffff1673ffffffffffffffffffffffffffffffffffffffff1681526020019081526020015f205490505f81036102a6576040517f08c379a000000000000000000000000000000000000000000000000000000000815260040161029d9061118f565b60405180910390fd5b5f5f5f8381526020019081526020015f206040518060c00160405290815f820180546102d1906111da565b80601f01602080910402602001604051908101604052809291908181526020018280546102fd906111da565b80156103485780601f1061031f57610100808354040283529160200191610348565b820191905f5260205f20905b81548152906001019060200180831161032b57829003601f168201915b50505050508152602001600182018054610361906111da565b80601f016020809104026020016040519081016040528092919081815260200182805461038d906111da565b80156103d85780601f106103af576101008083540402835291602001916103d8565b820191905f5260205f20905b8154815290600101906020018083116103bb57829003601f168201915b50505050508152602001600282015f9054906101000a900473ffffffffffffffffffffffffffffffffffffffff1673ffffffffffffffffffffffffffffffffffffffff1673ffffffffffffffffffffffffffffffffffffffff16815260200160038201548152602001600482018054610450906111da565b80601f016020809104026020016040519081016040528092919081815260200182805461047c906111da565b80156104c75780601f1061049e576101008083540402835291602001916104c7565b820191905f5260205f20905b8154815290600101906020018083116104aa57829003601f168201915b50505050508152602001600582015f9054906101000a900460ff1615151515815250509050805f0151816020015182604001518360600151846080015160025f8881526020019081526020015f2054975097509750975097509750505091939550919395565b5f602052805f5260405f205f91509050805f01805461054b906111da565b80601f0160208091040260200160405190810160405280929190818152602001828054610577906111da565b80156105c25780601f10610599576101008083540402835291602001916105c2565b820191905f5260205f20905b8154815290600101906020018083116105a557829003601f168201915b5050505050908060010180546105d7906111da565b80601f0160208091040260200160405190810160405280929190818152602001828054610603906111da565b801561064e5780601f106106255761010080835404028352916020019161064e565b820191905f5260205f20905b81548152906001019060200180831161063157829003601f168201915b505050505090806002015f9054906101000a900473ffffffffffffffffffffffffffffffffffffffff169080600301549080600401805461068e906111da565b80601f01602080910402602001604051908101604052809291908181526020018280546106ba906111da565b80156107055780601f106106dc57610100808354040283529160200191610705565b820191905f5260205f20905b8154815290600101906020018083116106e857829003601f168201915b505050505090806005015f9054906101000a900460ff16905086565b5f5f60015f8773ffffffffffffffffffffffffffffffffffffffff1673ffffffffffffffffffffffffffffffffffffffff1681526020019081526020015f2054146107a1576040517f08c379a000000000000000000000000000000000000000000000000000000000815260040161079890611254565b60405180910390fd5b5f73ffffffffffffffffffffffffffffffffffffffff168573ffffffffffffffffffffffffffffffffffffffff160361080f576040517f08c379a0000000000000000000000000000000000000000000000000000000008152600401610806906112bc565b60405180910390fd5b60035f81548092919061082190611307565b91905055505f60035490506040518060c001604052808681526020018581526020013373ffffffffffffffffffffffffffffffffffffffff168152602001438152602001848152602001600115158152505f5f8381526020019081526020015f205f820151815f01908161089591906114ff565b5060208201518160010190816108ab91906114ff565b506040820151816002015f6101000a81548173ffffffffffffffffffffffffffffffffffffffff021916908373ffffffffffffffffffffffffffffffffffffffff16021790555060608201518160030155608082015181600401908161091191906114ff565b5060a0820151816005015f6101000a81548160ff0219169083151502179055509050508060015f8873ffffffffffffffffffffffffffffffffffffffff1673ffffffffffffffffffffffffffffffffffffffff1681526020019081526020015f20819055508573ffffffffffffffffffffffffffffffffffffffff16817fba622d2504a99cfc7342cfbbff6392f9e4c8df9246c33de7ff0f73597f9ca12e87336040516109bf9291906115ce565b60405180910390a380915050949350505050565b6002602052805f5260405f205f915090505481565b5f5f8481526020019081526020015f206005015f9054906101000a900460ff16610a47576040517f08c379a0000000000000000000000000000000000000000000000000000000008152600401610a3e90611646565b60405180910390fd5b3373ffffffffffffffffffffffffffffffffffffffff165f5f8581526020019081526020015f206002015f9054906101000a900473ffffffffffffffffffffffffffffffffffffffff1673ffffffffffffffffffffffffffffffffffffffff1614610ae7576040517f08c379a0000000000000000000000000000000000000000000000000000000008152600401610ade906116ae565b60405180910390fd5b60025f8481526020019081526020015f205f815480929190610b0890611307565b9190505550827f1e9afe82d88612eff6f0b6fea52830e007d068bfaffded6abd351aacee183e3f8383604051610b3f9291906116cc565b60405180910390a2505050565b6040517f08c379a0000000000000000000000000000000000000000000000000000000008152600401610b7e9061174b565b60405180910390fd5b5f5f60015f8473ffffffffffffffffffffffffffffffffffffffff1673ffffffffffffffffffffffffffffffffffffffff1681526020019081526020015f205414159050919050565b6001602052805f5260405f205f915090505481565b5f819050919050565b610bf781610be5565b82525050565b5f602082019050610c105f830184610bee565b92915050565b5f604051905090565b5f5ffd5b5f5ffd5b5f73ffffffffffffffffffffffffffffffffffffffff82169050919050565b5f610c5082610c27565b9050919050565b610c6081610c46565b8114610c6a575f5ffd5b50565b5f81359050610c7b81610c57565b92915050565b5f60208284031215610c9657610c95610c1f565b5b5f610ca384828501610c6d565b91505092915050565b5f81519050919050565b5f82825260208201905092915050565b8281835e5f83830152505050565b5f601f19601f8301169050919050565b5f610cee82610cac565b610cf88185610cb6565b9350610d08818560208601610cc6565b610d1181610cd4565b840191505092915050565b610d2581610c46565b82525050565b5f60c0820190508181035f830152610d438189610ce4565b90508181036020830152610d578188610ce4565b9050610d666040830187610d1c565b610d736060830186610bee565b8181036080830152610d858185610ce4565b9050610d9460a0830184610bee565b979650505050505050565b610da881610be5565b8114610db2575f5ffd5b50565b5f81359050610dc381610d9f565b92915050565b5f60208284031215610dde57610ddd610c1f565b5b5f610deb84828501610db5565b91505092915050565b5f8115159050919050565b610e0881610df4565b82525050565b5f60c0820190508181035f830152610e268189610ce4565b90508181036020830152610e3a8188610ce4565b9050610e496040830187610d1c565b610e566060830186610bee565b8181036080830152610e688185610ce4565b9050610e7760a0830184610dff565b979650505050505050565b5f5ffd5b5f5ffd5b7f4e487b71000000000000000000000000000000000000000000000000000000005f52604160045260245ffd5b610ec082610cd4565b810181811067ffffffffffffffff82111715610edf57610ede610e8a565b5b80604052505050565b5f610ef1610c16565b9050610efd8282610eb7565b919050565b5f67ffffffffffffffff821115610f1c57610f1b610e8a565b5b610f2582610cd4565b9050602081019050919050565b828183375f83830152505050565b5f610f52610f4d84610f02565b610ee8565b905082815260208101848484011115610f6e57610f6d610e86565b5b610f79848285610f32565b509392505050565b5f82601f830112610f9557610f94610e82565b5b8135610fa5848260208601610f40565b91505092915050565b5f5f5f5f60808587031215610fc657610fc5610c1f565b5b5f610fd387828801610c6d565b945050602085013567ffffffffffffffff811115610ff457610ff3610c23565b5b61100087828801610f81565b935050604085013567ffffffffffffffff81111561102157611020610c23565b5b61102d87828801610f81565b925050606085013567ffffffffffffffff81111561104e5761104d610c23565b5b61105a87828801610f81565b91505092959194509250565b5f5f5f6060848603121561107d5761107c610c1f565b5b5f61108a86828701610db5565b935050602084013567ffffffffffffffff8111156110ab576110aa610c23565b5b6110b786828701610f81565b925050604084013567ffffffffffffffff8111156110d8576110d7610c23565b5b6110e486828701610f81565b9150509250925092565b5f5f6040838503121561110457611103610c1f565b5b5f61111185828601610c6d565b925050602061112285828601610db5565b9150509250929050565b5f60208201905061113f5f830184610dff565b92915050565b7f4167656e7420686173206e6f20736f756c0000000000000000000000000000005f82015250565b5f611179601183610cb6565b915061118482611145565b602082019050919050565b5f6020820190508181035f8301526111a68161116d565b9050919050565b7f4e487b71000000000000000000000000000000000000000000000000000000005f52602260045260245ffd5b5f60028204905060018216806111f157607f821691505b602082108103611204576112036111ad565b5b50919050565b7f4167656e7420616c726561647920686173206120736f756c00000000000000005f82015250565b5f61123e601883610cb6565b91506112498261120a565b602082019050919050565b5f6020820190508181035f83015261126b81611232565b9050919050565b7f496e76616c6964206167656e74206164647265737300000000000000000000005f82015250565b5f6112a6601583610cb6565b91506112b182611272565b602082019050919050565b5f6020820190508181035f8301526112d38161129a565b9050919050565b7f4e487b71000000000000000000000000000000000000000000000000000000005f52601160045260245ffd5b5f61131182610be5565b91507fffffffffffffffffffffffffffffffffffffffffffffffffffffffffffffffff8203611343576113426112da565b5b600182019050919050565b5f819050815f5260205f209050919050565b5f6020601f8301049050919050565b5f82821b905092915050565b5f600883026113aa7fffffffffffffffffffffffffffffffffffffffffffffffffffffffffffffffff8261136f565b6113b4868361136f565b95508019841693508086168417925050509392505050565b5f819050919050565b5f6113ef6113ea6113e584610be5565b6113cc565b610be5565b9050919050565b5f819050919050565b611408836113d5565b61141c611414826113f6565b84845461137b565b825550505050565b5f5f905090565b611433611424565b61143e8184846113ff565b505050565b5f5b82811015611464576114595f82840161142b565b600181019050611445565b505050565b601f8211156114b757828211156114b6576114838161134e565b61148c83611360565b61149585611360565b60208610156114a2575f90505b8083016114b182840382611443565b505050505b5b505050565b5f82821c905092915050565b5f6114d75f19846008026114bc565b1980831691505092915050565b5f6114ef83836114c8565b9150826002028217905092915050565b61150882610cac565b67ffffffffffffffff81111561152157611520610e8a565b5b61152b82546111da565b611536828285611469565b5f60209050601f831160018114611567575f8415611555578287015190505b61155f85826114e4565b8655506115c6565b601f1984166115758661134e565b5f5b8281101561159c57848901518255600182019150602085019450602081019050611577565b868310156115b957848901516115b5601f8916826114c8565b8355505b6001600288020188555050505b505050505050565b5f6040820190508181035f8301526115e68185610ce4565b90506115f56020830184610d1c565b9392505050565b7f536f756c20646f6573206e6f74206578697374000000000000000000000000005f82015250565b5f611630601383610cb6565b915061163b826115fc565b602082019050919050565b5f6020820190508181035f83015261165d81611624565b9050919050565b7f4f6e6c792063726561746f722063616e207265636f726420616374696f6e73005f82015250565b5f611698601f83610cb6565b91506116a382611664565b602082019050919050565b5f6020820190508181035f8301526116c58161168c565b9050919050565b5f6040820190508181035f8301526116e48185610ce4565b905081810360208301526116f88184610ce4565b90509392505050565b7f536f756c626f756e643a207472616e73666572732064697361626c65640000005f82015250565b5f611735601d83610cb6565b915061174082611701565b602082019050919050565b5f6020820190508181035f83015261176281611729565b905091905056fea26469706673582212203fbdf9f0731965e22e5d6785267bb74c0f5ece24a72bec1e83982ae41afda70e64736f6c63430008210033","linkReferences":{}},"methodIdentifiers":{"actionCount(uint256)":"9570cba9","agentToSoul(address)":"f7c3328c","getSoul(address)":"66cfe97f","hasSoul(address)":"bdd75202","mintSoul(address,string,string,string)":"93a36313","recordAction(uint256,string,string)":"a5a6998c","souls(uint256)":"7f0df684","totalSouls()":"4879a9a6","transfer(address,uint256)":"a9059cbb"},"id":22}