{"abi":[{"type":"constructor","inputs":[{"name":"_aliasContract","type":"address","internalType":"address"}],"stateMutability":"nonpayable"},{"type":"function","name":"aliasContract","inputs":[],"outputs":[{"name":"","type":"address","internalType":"address"}],"stateMutability":"view"},{"type":"function","name":"getVerificationCount","inputs":[{"name":"tokenId","type":"uint256","internalType":"uint256"}],"outputs":[{"name":"","type":"uint256","internalType":"uint256"}],"stateMutability":"view"},{"type":"function","name":"getVerifications","inputs":[{"name":"tokenId","type":"uint256","internalType":"uint256"}],"outputs":[{"name":"","type":"tuple[]","internalType":"struct VerificationRegistry.Verification[]","components":[{"name":"verifier","type":"address","internalType":"address"},{"name":"timestamp","type":"uint256","internalType":"uint256"},{"name":"message","type":"string","internalType":"string"}]}],"stateMutability":"view"},{"type":"function","name":"hasVerified","inputs":[{"name":"","type":"address","internalType":"address"},{"name":"","type":"uint256","internalType":"uint256"}],"outputs":[{"name":"","type":"bool","internalType":"bool"}],"stateMutability":"view"},{"type":"function","name":"isVerifiedBy","inputs":[{"name":"verifier","type":"address","internalType":"address"},{"name":"tokenId","type":"uint256","internalType":"uint256"}],"outputs":[{"name":"","type":"bool","internalType":"bool"}],"stateMutability":"view"},{"type":"function","name":"verifications","inputs":[{"name":"","type":"uint256","internalType":"uint256"},{"name":"","type":"uint256","internalType":"uint256"}],"outputs":[{"name":"verifier","type":"address","internalType":"address"},{"name":"timestamp","type":"uint256","internalType":"uint256"},{"name":"message","type":"string","internalType":"string"}],"stateMutability":"view"},{"type":"function","name":"verify","inputs":[{"name":"tokenId","type":"uint256","internalType":"uint256"},{"name":"message","type":"string","internalType":"string"}],"outputs":[],"stateMutability":"nonpayable"},{"type":"event","name":"AgentVerified","inputs":[{"name":"tokenId","type":"uint256","indexed":true,"internalType":"uint256"},{"name":"verifier","type":"address","indexed":true,"internalType":"address"},{"name":"timestamp","type":"uint256","indexed":false,"internalType":"uint256"},{"name":"message","type":"string","indexed":false,"internalType":"string"}],"anonymous":false}],"bytecode":{"object":"0x60a060405234801561000f575f5ffd5b506040516110ee3803806110ee833981810160405281019061003191906100c9565b8073ffffffffffffffffffffffffffffffffffffffff1660808173ffffffffffffffffffffffffffffffffffffffff1681525050506100f4565b5f5ffd5b5f73ffffffffffffffffffffffffffffffffffffffff82169050919050565b5f6100988261006f565b9050919050565b6100a88161008e565b81146100b2575f5ffd5b50565b5f815190506100c38161009f565b92915050565b5f602082840312156100de576100dd61006b565b5b5f6100eb848285016100b5565b91505092915050565b608051610fe261010c5f395f6101ad0152610fe25ff3fe608060405234801561000f575f5ffd5b506004361061007b575f3560e01c80634942f358116100595780634942f358146100fd578063aa60c5ea14610119578063ca91a9951461014b578063fa3a38481461017b5761007b565b8063077af8151461007f57806308245d1a1461009d5780630f584d46146100cd575b5f5ffd5b6100876101ab565b6040516100949190610758565b60405180910390f35b6100b760048036038101906100b291906107d6565b6101cf565b6040516100c4919061082e565b60405180910390f35b6100e760048036038101906100e29190610847565b6101f9565b6040516100f49190610a08565b60405180910390f35b61011760048036038101906101129190610a89565b610353565b005b610133600480360381019061012e9190610ae6565b6105b7565b60405161014293929190610b7b565b60405180910390f35b610165600480360381019061016091906107d6565b61069b565b604051610172919061082e565b60405180910390f35b61019560048036038101906101909190610847565b6106fd565b6040516101a29190610bb7565b60405180910390f35b7f000000000000000000000000000000000000000000000000000000000000000081565b6001602052815f5260405f20602052805f5260405f205f915091509054906101000a900460ff1681565b60605f5f8381526020019081526020015f20805480602002602001604051908101604052809291908181526020015f905b82821015610348578382905f5260205f2090600302016040518060600160405290815f82015f9054906101000a900473ffffffffffffffffffffffffffffffffffffffff1673ffffffffffffffffffffffffffffffffffffffff1673ffffffffffffffffffffffffffffffffffffffff168152602001600182015481526020016002820180546102b990610bfd565b80601f01602080910402602001604051908101604052809291908181526020018280546102e590610bfd565b80156103305780601f1061030757610100808354040283529160200191610330565b820191905f5260205f20905b81548152906001019060200180831161031357829003601f168201915b5050505050815250508152602001906001019061022a565b505050509050919050565b60015f3373ffffffffffffffffffffffffffffffffffffffff1673ffffffffffffffffffffffffffffffffffffffff1681526020019081526020015f205f8481526020019081526020015f205f9054906101000a900460ff16156103ec576040517f08c379a00000000000000000000000000000000000000000000000000000000081526004016103e390610c77565b60405180910390fd5b6001805f3373ffffffffffffffffffffffffffffffffffffffff1673ffffffffffffffffffffffffffffffffffffffff1681526020019081526020015f205f8581526020019081526020015f205f6101000a81548160ff0219169083151502179055505f5f8481526020019081526020015f2060405180606001604052803373ffffffffffffffffffffffffffffffffffffffff16815260200142815260200184848080601f0160208091040260200160405190810160405280939291908181526020018383808284375f81840152601f19601f82011690508083019250505050505050815250908060018154018082558091505060019003905f5260205f2090600302015f909190919091505f820151815f015f6101000a81548173ffffffffffffffffffffffffffffffffffffffff021916908373ffffffffffffffffffffffffffffffffffffffff16021790555060208201518160010155604082015181600201908161055c9190610e73565b5050503373ffffffffffffffffffffffffffffffffffffffff16837f8daeecd42107df2a6fa85dbe7d15576c48429f99fe76bf75db32e2fac52684f54285856040516105aa93929190610f7c565b60405180910390a3505050565b5f602052815f5260405f2081815481106105cf575f80fd5b905f5260205f2090600302015f9150915050805f015f9054906101000a900473ffffffffffffffffffffffffffffffffffffffff169080600101549080600201805461061a90610bfd565b80601f016020809104026020016040519081016040528092919081815260200182805461064690610bfd565b80156106915780601f1061066857610100808354040283529160200191610691565b820191905f5260205f20905b81548152906001019060200180831161067457829003601f168201915b5050505050905083565b5f60015f8473ffffffffffffffffffffffffffffffffffffffff1673ffffffffffffffffffffffffffffffffffffffff1681526020019081526020015f205f8381526020019081526020015f205f9054906101000a900460ff16905092915050565b5f5f5f8381526020019081526020015f20805490509050919050565b5f73ffffffffffffffffffffffffffffffffffffffff82169050919050565b5f61074282610719565b9050919050565b61075281610738565b82525050565b5f60208201905061076b5f830184610749565b92915050565b5f5ffd5b5f5ffd5b61078281610738565b811461078c575f5ffd5b50565b5f8135905061079d81610779565b92915050565b5f819050919050565b6107b5816107a3565b81146107bf575f5ffd5b50565b5f813590506107d0816107ac565b92915050565b5f5f604083850312156107ec576107eb610771565b5b5f6107f98582860161078f565b925050602061080a858286016107c2565b9150509250929050565b5f8115159050919050565b61082881610814565b82525050565b5f6020820190506108415f83018461081f565b92915050565b5f6020828403121561085c5761085b610771565b5b5f610869848285016107c2565b91505092915050565b5f81519050919050565b5f82825260208201905092915050565b5f819050602082019050919050565b6108a481610738565b82525050565b6108b3816107a3565b82525050565b5f81519050919050565b5f82825260208201905092915050565b8281835e5f83830152505050565b5f601f19601f8301169050919050565b5f6108fb826108b9565b61090581856108c3565b93506109158185602086016108d3565b61091e816108e1565b840191505092915050565b5f606083015f83015161093e5f86018261089b565b50602083015161095160208601826108aa565b506040830151848203604086015261096982826108f1565b9150508091505092915050565b5f6109818383610929565b905092915050565b5f602082019050919050565b5f61099f82610872565b6109a9818561087c565b9350836020820285016109bb8561088c565b805f5b858110156109f657848403895281516109d78582610976565b94506109e283610989565b925060208a019950506001810190506109be565b50829750879550505050505092915050565b5f6020820190508181035f830152610a208184610995565b905092915050565b5f5ffd5b5f5ffd5b5f5ffd5b5f5f83601f840112610a4957610a48610a28565b5b8235905067ffffffffffffffff811115610a6657610a65610a2c565b5b602083019150836001820283011115610a8257610a81610a30565b5b9250929050565b5f5f5f60408486031215610aa057610a9f610771565b5b5f610aad868287016107c2565b935050602084013567ffffffffffffffff811115610ace57610acd610775565b5b610ada86828701610a34565b92509250509250925092565b5f5f60408385031215610afc57610afb610771565b5b5f610b09858286016107c2565b9250506020610b1a858286016107c2565b9150509250929050565b610b2d816107a3565b82525050565b5f82825260208201905092915050565b5f610b4d826108b9565b610b578185610b33565b9350610b678185602086016108d3565b610b70816108e1565b840191505092915050565b5f606082019050610b8e5f830186610749565b610b9b6020830185610b24565b8181036040830152610bad8184610b43565b9050949350505050565b5f602082019050610bca5f830184610b24565b92915050565b7f4e487b71000000000000000000000000000000000000000000000000000000005f52602260045260245ffd5b5f6002820490506001821680610c1457607f821691505b602082108103610c2757610c26610bd0565b5b50919050565b7f416c72656164792076657269666965642074686973206167656e7400000000005f82015250565b5f610c61601b83610b33565b9150610c6c82610c2d565b602082019050919050565b5f6020820190508181035f830152610c8e81610c55565b9050919050565b7f4e487b71000000000000000000000000000000000000000000000000000000005f52604160045260245ffd5b5f819050815f5260205f209050919050565b5f6020601f8301049050919050565b5f82821b905092915050565b5f60088302610d1e7fffffffffffffffffffffffffffffffffffffffffffffffffffffffffffffffff82610ce3565b610d288683610ce3565b95508019841693508086168417925050509392505050565b5f819050919050565b5f610d63610d5e610d59846107a3565b610d40565b6107a3565b9050919050565b5f819050919050565b610d7c83610d49565b610d90610d8882610d6a565b848454610cef565b825550505050565b5f5f905090565b610da7610d98565b610db2818484610d73565b505050565b5f5b82811015610dd857610dcd5f828401610d9f565b600181019050610db9565b505050565b601f821115610e2b5782821115610e2a57610df781610cc2565b610e0083610cd4565b610e0985610cd4565b6020861015610e16575f90505b808301610e2582840382610db7565b505050505b5b505050565b5f82821c905092915050565b5f610e4b5f1984600802610e30565b1980831691505092915050565b5f610e638383610e3c565b9150826002028217905092915050565b610e7c826108b9565b67ffffffffffffffff811115610e9557610e94610c95565b5b610e9f8254610bfd565b610eaa828285610ddd565b5f60209050601f831160018114610edb575f8415610ec9578287015190505b610ed38582610e58565b865550610f3a565b601f198416610ee986610cc2565b5f5b82811015610f1057848901518255600182019150602085019450602081019050610eeb565b86831015610f2d5784890151610f29601f891682610e3c565b8355505b6001600288020188555050505b505050505050565b828183375f83830152505050565b5f610f5b8385610b33565b9350610f68838584610f42565b610f71836108e1565b840190509392505050565b5f604082019050610f8f5f830186610b24565b8181036020830152610fa2818486610f50565b905094935050505056fea264697066735822122052d45e0f3ce491af75a31bcf9865d16813692ebb9394b82862d43e3e6ae062f764736f6c63430008210033","linkReferences":{}},"methodIdentifiers":{"aliasContract()":"077af815","getVerificationCount(uint256)":"fa3a3848","getVerifications(uint256)":"0f584d46","hasVerified(address,uint256)":"08245d1a","isVerifiedBy(address,uint256)":"ca91a995","verifications(uint256,uint256)":"aa60c5ea","verify(uint256,string)":"4942f358"},"id":0}