{"abi":[{"type":"constructor","inputs":[{"name":"_aliasContract","type":"address","internalType":"address"}],"stateMutability":"nonpayable"},{"type":"function","name":"MAX_MESSAGE_LENGTH","inputs":[],"outputs":[{"name":"","type":"uint256","internalType":"uint256"}],"stateMutability":"view"},{"type":"function","name":"aliasContract","inputs":[],"outputs":[{"name":"","type":"address","internalType":"address"}],"stateMutability":"view"},{"type":"function","name":"getAllVerifications","inputs":[{"name":"tokenId","type":"uint256","internalType":"uint256"}],"outputs":[{"name":"","type":"tuple[]","internalType":"struct VerificationRegistryV2.Verification[]","components":[{"name":"verifier","type":"address","internalType":"address"},{"name":"timestamp","type":"uint256","internalType":"uint256"},{"name":"message","type":"string","internalType":"string"}]}],"stateMutability":"view"},{"type":"function","name":"getVerificationCount","inputs":[{"name":"tokenId","type":"uint256","internalType":"uint256"}],"outputs":[{"name":"","type":"uint256","internalType":"uint256"}],"stateMutability":"view"},{"type":"function","name":"getVerifications","inputs":[{"name":"tokenId","type":"uint256","internalType":"uint256"},{"name":"offset","type":"uint256","internalType":"uint256"},{"name":"limit","type":"uint256","internalType":"uint256"}],"outputs":[{"name":"","type":"tuple[]","internalType":"struct VerificationRegistryV2.Verification[]","components":[{"name":"verifier","type":"address","internalType":"address"},{"name":"timestamp","type":"uint256","internalType":"uint256"},{"name":"message","type":"string","internalType":"string"}]}],"stateMutability":"view"},{"type":"function","name":"hasVerified","inputs":[{"name":"","type":"address","internalType":"address"},{"name":"","type":"uint256","internalType":"uint256"}],"outputs":[{"name":"","type":"bool","internalType":"bool"}],"stateMutability":"view"},{"type":"function","name":"isVerifiedBy","inputs":[{"name":"verifier","type":"address","internalType":"address"},{"name":"tokenId","type":"uint256","internalType":"uint256"}],"outputs":[{"name":"","type":"bool","internalType":"bool"}],"stateMutability":"view"},{"type":"function","name":"verifications","inputs":[{"name":"","type":"uint256","internalType":"uint256"},{"name":"","type":"uint256","internalType":"uint256"}],"outputs":[{"name":"verifier","type":"address","internalType":"address"},{"name":"timestamp","type":"uint256","internalType":"uint256"},{"name":"message","type":"string","internalType":"string"}],"stateMutability":"view"},{"type":"function","name":"verify","inputs":[{"name":"tokenId","type":"uint256","internalType":"uint256"},{"name":"message","type":"string","internalType":"string"}],"outputs":[],"stateMutability":"nonpayable"},{"type":"event","name":"AgentVerified","inputs":[{"name":"tokenId","type":"uint256","indexed":true,"internalType":"uint256"},{"name":"verifier","type":"address","indexed":true,"internalType":"address"},{"name":"timestamp","type":"uint256","indexed":false,"internalType":"uint256"},{"name":"message","type":"string","indexed":false,"internalType":"string"}],"anonymous":false}],"bytecode":{"object":"0x60a060405234801561000f575f5ffd5b506040516118c83803806118c883398181016040528101906100319190610137565b5f73ffffffffffffffffffffffffffffffffffffffff168173ffffffffffffffffffffffffffffffffffffffff160361009f576040517f08c379a0000000000000000000000000000000000000000000000000000000008152600401610096906101bc565b60405180910390fd5b8073ffffffffffffffffffffffffffffffffffffffff1660808173ffffffffffffffffffffffffffffffffffffffff1681525050506101da565b5f5ffd5b5f73ffffffffffffffffffffffffffffffffffffffff82169050919050565b5f610106826100dd565b9050919050565b610116816100fc565b8114610120575f5ffd5b50565b5f815190506101318161010d565b92915050565b5f6020828403121561014c5761014b6100d9565b5b5f61015984828501610123565b91505092915050565b5f82825260208201905092915050565b7f496e76616c696420414c49415320636f6e7472616374206164647265737300005f82015250565b5f6101a6601e83610162565b91506101b182610172565b602082019050919050565b5f6020820190508181035f8301526101d38161019a565b9050919050565b6080516116cf6101f95f395f8181610211015261040101526116cf5ff3fe608060405234801561000f575f5ffd5b5060043610610091575f3560e01c80634942f358116100645780634942f35814610131578063aa60c5ea1461014d578063ca91a9951461017f578063e0504cff146101af578063fa3a3848146101df57610091565b8063077af8151461009557806308245d1a146100b35780632a027211146100e35780633436237614610101575b5f5ffd5b61009d61020f565b6040516100aa9190610bbe565b60405180910390f35b6100cd60048036038101906100c89190610c3c565b610233565b6040516100da9190610c94565b60405180910390f35b6100eb61025d565b6040516100f89190610cbc565b60405180910390f35b61011b60048036038101906101169190610cd5565b610263565b6040516101289190610e96565b60405180910390f35b61014b60048036038101906101469190610f17565b6103bd565b005b61016760048036038101906101629190610f74565b61077a565b60405161017693929190610ffa565b60405180910390f35b61019960048036038101906101949190610c3c565b61085e565b6040516101a69190610c94565b60405180910390f35b6101c960048036038101906101c49190611036565b6108c0565b6040516101d69190610e96565b60405180910390f35b6101f960048036038101906101f49190610cd5565b610b2e565b6040516102069190610cbc565b60405180910390f35b7f000000000000000000000000000000000000000000000000000000000000000081565b6001602052815f5260405f20602052805f5260405f205f915091509054906101000a900460ff1681565b61011881565b60605f5f8381526020019081526020015f20805480602002602001604051908101604052809291908181526020015f905b828210156103b2578382905f5260205f2090600302016040518060600160405290815f82015f9054906101000a900473ffffffffffffffffffffffffffffffffffffffff1673ffffffffffffffffffffffffffffffffffffffff1673ffffffffffffffffffffffffffffffffffffffff16815260200160018201548152602001600282018054610323906110b3565b80601f016020809104026020016040519081016040528092919081815260200182805461034f906110b3565b801561039a5780601f106103715761010080835404028352916020019161039a565b820191905f5260205f20905b81548152906001019060200180831161037d57829003601f168201915b50505050508152505081526020019060010190610294565b505050509050919050565b5f83116103ff576040517f08c379a00000000000000000000000000000000000000000000000000000000081526004016103f69061112d565b60405180910390fd5b7f000000000000000000000000000000000000000000000000000000000000000073ffffffffffffffffffffffffffffffffffffffff16634879a9a66040518163ffffffff1660e01b8152600401602060405180830381865afa158015610468573d5f5f3e3d5ffd5b505050506040513d601f19601f8201168201806040525081019061048c919061115f565b8311156104ce576040517f08c379a00000000000000000000000000000000000000000000000000000000081526004016104c5906111d4565b60405180910390fd5b60015f3373ffffffffffffffffffffffffffffffffffffffff1673ffffffffffffffffffffffffffffffffffffffff1681526020019081526020015f205f8481526020019081526020015f205f9054906101000a900460ff1615610567576040517f08c379a000000000000000000000000000000000000000000000000000000000815260040161055e9061123c565b60405180910390fd5b6101188282905011156105af576040517f08c379a00000000000000000000000000000000000000000000000000000000081526004016105a6906112a4565b60405180910390fd5b6001805f3373ffffffffffffffffffffffffffffffffffffffff1673ffffffffffffffffffffffffffffffffffffffff1681526020019081526020015f205f8581526020019081526020015f205f6101000a81548160ff0219169083151502179055505f5f8481526020019081526020015f2060405180606001604052803373ffffffffffffffffffffffffffffffffffffffff16815260200142815260200184848080601f0160208091040260200160405190810160405280939291908181526020018383808284375f81840152601f19601f82011690508083019250505050505050815250908060018154018082558091505060019003905f5260205f2090600302015f909190919091505f820151815f015f6101000a81548173ffffffffffffffffffffffffffffffffffffffff021916908373ffffffffffffffffffffffffffffffffffffffff16021790555060208201518160010155604082015181600201908161071f91906114a0565b5050503373ffffffffffffffffffffffffffffffffffffffff16837f8daeecd42107df2a6fa85dbe7d15576c48429f99fe76bf75db32e2fac52684f542858560405161076d939291906115a9565b60405180910390a3505050565b5f602052815f5260405f208181548110610792575f80fd5b905f5260205f2090600302015f9150915050805f015f9054906101000a900473ffffffffffffffffffffffffffffffffffffffff16908060010154908060020180546107dd906110b3565b80601f0160208091040260200160405190810160405280929190818152602001828054610809906110b3565b80156108545780601f1061082b57610100808354040283529160200191610854565b820191905f5260205f20905b81548152906001019060200180831161083757829003601f168201915b5050505050905083565b5f60015f8473ffffffffffffffffffffffffffffffffffffffff1673ffffffffffffffffffffffffffffffffffffffff1681526020019081526020015f205f8381526020019081526020015f205f9054906101000a900460ff16905092915050565b60605f5f5f8681526020019081526020015f2090505f81805490509050808510610941575f67ffffffffffffffff8111156108fe576108fd6112c2565b5b60405190808252806020026020018201604052801561093757816020015b610924610b4a565b81526020019060019003908161091c5790505b5092505050610b27565b5f848661094e9190611606565b90508181111561095c578190505b5f86826109699190611639565b90505f8167ffffffffffffffff811115610986576109856112c2565b5b6040519080825280602002602001820160405280156109bf57816020015b6109ac610b4a565b8152602001906001900390816109a45790505b5090505f5f90505b82811015610b1d5785818a6109dc9190611606565b815481106109ed576109ec61166c565b5b905f5260205f2090600302016040518060600160405290815f82015f9054906101000a900473ffffffffffffffffffffffffffffffffffffffff1673ffffffffffffffffffffffffffffffffffffffff1673ffffffffffffffffffffffffffffffffffffffff16815260200160018201548152602001600282018054610a72906110b3565b80601f0160208091040260200160405190810160405280929190818152602001828054610a9e906110b3565b8015610ae95780601f10610ac057610100808354040283529160200191610ae9565b820191905f5260205f20905b815481529060010190602001808311610acc57829003601f168201915b505050505081525050828281518110610b0557610b0461166c565b5b602002602001018190525080806001019150506109c7565b5080955050505050505b9392505050565b5f5f5f8381526020019081526020015f20805490509050919050565b60405180606001604052805f73ffffffffffffffffffffffffffffffffffffffff1681526020015f8152602001606081525090565b5f73ffffffffffffffffffffffffffffffffffffffff82169050919050565b5f610ba882610b7f565b9050919050565b610bb881610b9e565b82525050565b5f602082019050610bd15f830184610baf565b92915050565b5f5ffd5b5f5ffd5b610be881610b9e565b8114610bf2575f5ffd5b50565b5f81359050610c0381610bdf565b92915050565b5f819050919050565b610c1b81610c09565b8114610c25575f5ffd5b50565b5f81359050610c3681610c12565b92915050565b5f5f60408385031215610c5257610c51610bd7565b5b5f610c5f85828601610bf5565b9250506020610c7085828601610c28565b9150509250929050565b5f8115159050919050565b610c8e81610c7a565b82525050565b5f602082019050610ca75f830184610c85565b92915050565b610cb681610c09565b82525050565b5f602082019050610ccf5f830184610cad565b92915050565b5f60208284031215610cea57610ce9610bd7565b5b5f610cf784828501610c28565b91505092915050565b5f81519050919050565b5f82825260208201905092915050565b5f819050602082019050919050565b610d3281610b9e565b82525050565b610d4181610c09565b82525050565b5f81519050919050565b5f82825260208201905092915050565b8281835e5f83830152505050565b5f601f19601f8301169050919050565b5f610d8982610d47565b610d938185610d51565b9350610da3818560208601610d61565b610dac81610d6f565b840191505092915050565b5f606083015f830151610dcc5f860182610d29565b506020830151610ddf6020860182610d38565b5060408301518482036040860152610df78282610d7f565b9150508091505092915050565b5f610e0f8383610db7565b905092915050565b5f602082019050919050565b5f610e2d82610d00565b610e378185610d0a565b935083602082028501610e4985610d1a565b805f5b85811015610e845784840389528151610e658582610e04565b9450610e7083610e17565b925060208a01995050600181019050610e4c565b50829750879550505050505092915050565b5f6020820190508181035f830152610eae8184610e23565b905092915050565b5f5ffd5b5f5ffd5b5f5ffd5b5f5f83601f840112610ed757610ed6610eb6565b5b8235905067ffffffffffffffff811115610ef457610ef3610eba565b5b602083019150836001820283011115610f1057610f0f610ebe565b5b9250929050565b5f5f5f60408486031215610f2e57610f2d610bd7565b5b5f610f3b86828701610c28565b935050602084013567ffffffffffffffff811115610f5c57610f5b610bdb565b5b610f6886828701610ec2565b92509250509250925092565b5f5f60408385031215610f8a57610f89610bd7565b5b5f610f9785828601610c28565b9250506020610fa885828601610c28565b9150509250929050565b5f82825260208201905092915050565b5f610fcc82610d47565b610fd68185610fb2565b9350610fe6818560208601610d61565b610fef81610d6f565b840191505092915050565b5f60608201905061100d5f830186610baf565b61101a6020830185610cad565b818103604083015261102c8184610fc2565b9050949350505050565b5f5f5f6060848603121561104d5761104c610bd7565b5b5f61105a86828701610c28565b935050602061106b86828701610c28565b925050604061107c86828701610c28565b9150509250925092565b7f4e487b71000000000000000000000000000000000000000000000000000000005f52602260045260245ffd5b5f60028204905060018216806110ca57607f821691505b6020821081036110dd576110dc611086565b5b50919050565b7f496e76616c696420746f6b656e204944000000000000000000000000000000005f82015250565b5f611117601083610fb2565b9150611122826110e3565b602082019050919050565b5f6020820190508181035f8301526111448161110b565b9050919050565b5f8151905061115981610c12565b92915050565b5f6020828403121561117457611173610bd7565b5b5f6111818482850161114b565b91505092915050565b7f546f6b656e20646f6573206e6f742065786973740000000000000000000000005f82015250565b5f6111be601483610fb2565b91506111c98261118a565b602082019050919050565b5f6020820190508181035f8301526111eb816111b2565b9050919050565b7f416c72656164792076657269666965642074686973206167656e7400000000005f82015250565b5f611226601b83610fb2565b9150611231826111f2565b602082019050919050565b5f6020820190508181035f8301526112538161121a565b9050919050565b7f4d65737361676520746f6f206c6f6e67000000000000000000000000000000005f82015250565b5f61128e601083610fb2565b91506112998261125a565b602082019050919050565b5f6020820190508181035f8301526112bb81611282565b9050919050565b7f4e487b71000000000000000000000000000000000000000000000000000000005f52604160045260245ffd5b5f819050815f5260205f209050919050565b5f6020601f8301049050919050565b5f82821b905092915050565b5f6008830261134b7fffffffffffffffffffffffffffffffffffffffffffffffffffffffffffffffff82611310565b6113558683611310565b95508019841693508086168417925050509392505050565b5f819050919050565b5f61139061138b61138684610c09565b61136d565b610c09565b9050919050565b5f819050919050565b6113a983611376565b6113bd6113b582611397565b84845461131c565b825550505050565b5f5f905090565b6113d46113c5565b6113df8184846113a0565b505050565b5f5b82811015611405576113fa5f8284016113cc565b6001810190506113e6565b505050565b601f821115611458578282111561145757611424816112ef565b61142d83611301565b61143685611301565b6020861015611443575f90505b808301611452828403826113e4565b505050505b5b505050565b5f82821c905092915050565b5f6114785f198460080261145d565b1980831691505092915050565b5f6114908383611469565b9150826002028217905092915050565b6114a982610d47565b67ffffffffffffffff8111156114c2576114c16112c2565b5b6114cc82546110b3565b6114d782828561140a565b5f60209050601f831160018114611508575f84156114f6578287015190505b6115008582611485565b865550611567565b601f198416611516866112ef565b5f5b8281101561153d57848901518255600182019150602085019450602081019050611518565b8683101561155a5784890151611556601f891682611469565b8355505b6001600288020188555050505b505050505050565b828183375f83830152505050565b5f6115888385610fb2565b935061159583858461156f565b61159e83610d6f565b840190509392505050565b5f6040820190506115bc5f830186610cad565b81810360208301526115cf81848661157d565b9050949350505050565b7f4e487b71000000000000000000000000000000000000000000000000000000005f52601160045260245ffd5b5f61161082610c09565b915061161b83610c09565b9250828201905080821115611633576116326115d9565b5b92915050565b5f61164382610c09565b915061164e83610c09565b9250828203905081811115611666576116656115d9565b5b92915050565b7f4e487b71000000000000000000000000000000000000000000000000000000005f52603260045260245ffdfea26469706673582212206c5fb7f83fc368f14006eeadc0c77559e3ca849251a5f96e8f6ec8e434e606f364736f6c63430008210033","linkReferences":{}},"methodIdentifiers":{"MAX_MESSAGE_LENGTH()":"2a027211","aliasContract()":"077af815","getAllVerifications(uint256)":"34362376","getVerificationCount(uint256)":"fa3a3848","getVerifications(uint256,uint256,uint256)":"e0504cff","hasVerified(address,uint256)":"08245d1a","isVerifiedBy(address,uint256)":"ca91a995","verifications(uint256,uint256)":"aa60c5ea","verify(uint256,string)":"4942f358"},"id":2}